:020000040800F2
:100000006F00E03100000000000000000000000070
:1000100000000000000000000000000000000000E0
:1000200000000000000000000000000000000000D0
:1000300000000000000000000000000000000000C0
:1000400000000000000000000000000000000000B0
:1000500000000000000000000000000000000000A0
:100060000000000000000000000000000000000090
:100070000000000000000000000000000000000080
:100080000000000000000000000000000000000070
:100090000000000000000000000000000000000060
:1000A0000000000000000000000000000000000050
:1000B0000000000000000000000000000000000040
:1000C0000000000000000000000000000000000030
:1000D0000000000000000000000000000000000020
:1000E0000000000000000000000000000000000010
:1000F0000000000000000000000000000000000000
:1001000000000000000000000000000000000000EF
:1001100000000000000000000000000000000000DF
:1001200000000000000000000000000000000000CF
:1001300000000000000000000000000000000000BF
:1001400000000000000000000000000000000000AF
:0E0150000000000000000000000000000000A1
:10016000970100189381016A97820018938282E9AF
:100170001681170200181302E2E8170500001305A4
:10018000A52E73105530731020341703000013038D
:1001900003340293170500001305C54A970500189C
:1001A000938545E6170600181306C6E563FAC500F1
:1001B0008322050023A0550011059105E3EAC5FE41
:1001C000170500001305054897050018938585E37A
:1001D00017060018130606E363FAC500832205001C
:1001E00023A0550011059105E3EAC5FE170500009F
:1001F00013054545970500189385C5E017060018B7
:10020000130646E063FAC5008322050023A05500CB
:1002100011059105E3EAC5FE1705000013058542A7
:1002200097050018938505DE17060018130686DD6E
:1002300063FAC5008322050023A05500110591052E
:10024000E3EAC5FE170500001305C53F970500004A
:100250009385453F6300B502170600001306863EEE
:1002600063FAC5008322050023A0550011059105FE
:10027000E3EAC5FE170500181305C5D89705001851
:10028000938545D86377B500232005001105E36DFC
:10029000B5FE170500181305E5D6970500189385D8
:1002A00065D66377B500232005001105E36DB5FE23
:1002B00017050018130505D597050018938585D4F3
:1002C0006377B500232005001105E36DB5FE170522
:1002D0000018130525D3970500189385A512898D5D
:1002E000232005004CC1170400001304A435970413
:1002F0000000938424356307940003230400110451
:100300000293D5BF01458145170300001303031273
:100310000293170300001303431B029301A0170568
:100320000000130525E48545F605637BB50089814A
:100330006378B500170500001305C5002E950285EA
:100340009302002073A0027D97020000938282CB6B
:100350007390723097020000938282277390C27E5E
:1003600073E0C07E970200009382021073905230B7
:1003700017030000130303DF0293B71702409843EB
:10038000B71702401367170098C3B71702409107C9
:100390009443B717024091073707FFE03107758F85
:1003A00098C3B71702409443B71702403707F7FEC8
:1003B0007D17758F98C3B71702409443B717024053
:1003C0003707FCFF7D17758F98C3B7170240910759
:1003D0009443B71702409107370701DF7D17758FE8
:1003E00098C3B71702409387C70223A00700B71727
:1003F00002409443B71702403707F7EA7D17758F1D
:1004000098C3B7170240A1073707FF0098C3010040
:020410008280E8
:1004140041112AC62EC43247A247B307F7023E85CC
:1004240041018280011106CE95473EC09D473EC2E0
:1004340002C419A802479247BA973EC6B247950725
:100444003EC2A24785073EC42247A547E3D4E7FE40
:1004540092453245753F2AC0A24785073EC4EDBF89
:10046400397106C016C21AC41EC62AC82ECA32CC96
:1004740036CE3AD03ED242D446D672D876DA7ADC38
:100484007EDE73252034F325103417030000130394
:100494004303029373101534824092422243B243C1
:1004A4004245D2456246F246025792572258B25804
:1004B400425ED25E625FF25F21617300203001A070
:1004C400828082800000011106CE75351305700507
:1004D4000928F920F36704303EC60100F2400561A3
:1004E4008280797106D62AC6B70700D22380070016
:1004F400B70700D2AD0723800700B71700D23ECC60
:10050400B24792076247BA973ECAE2473ECE39A045
:10051400F24723A00700F247C1073ECE7247D247F5
:10052400E368F7FE094515280100B2504561828051
:100534004111AA87A307F100B70700D20347F100CE
:100544002380E700010041018280B70700D283C7FE
:10055400070093F7F70F3E858280797106D6AA8744
:10056400A307F1008347F1008607A30FF100F13FD1
:10057400AA87230FF1008347E101859B13F7F70F47
:100584008347F101F98B93F7F70FD98FA30EF1008D
:100594008347D1013E85693F0100B25045618280A5
:1005A4004111F32750303EC6B2473EC4A24793F7E9
:1005B40007FC3EC4A24793E737003EC4A2477390AA
:1005C4005730010041018280130141FB06C016C26D
:1005D4001AC41EC62AC82ECA32CC36CE3AD03ED24F
:1005E40042D446D672D876DA7ADC7EDE7350E87E60
:1005F40073D0F87E7350B97EF390D07E824022434C
:10060400B2434245D2456246F246025792572258B7
:10061400B258425ED25E625FF25F73700430A642EB
:100624007390427C964273901234864273902234C3
:0A06340092421301C104730020304C
:040000050800031ECE
:00000001FF
