:020000040800F2
:100000006F00E03100000000000000000000000070
:1000100000000000000000000000000000000000E0
:1000200000000000000000000000000000000000D0
:1000300000000000000000000000000000000000C0
:1000400000000000000000000000000000000000B0
:1000500000000000000000000000000000000000A0
:100060000000000000000000000000000000000090
:100070000000000000000000000000000000000080
:100080000000000000000000000000000000000070
:100090000000000000000000000000000000000060
:1000A0000000000000000000000000000000000050
:1000B0000000000000000000000000000000000040
:1000C0000000000000000000000000000000000030
:1000D0000000000000000000000000000000000020
:1000E0000000000000000000000000000000000010
:1000F0000000000000000000000000000000000000
:1001000000000000000000000000000000000000EF
:1001100000000000000000000000000000000000DF
:1001200000000000000000000000000000000000CF
:1001300000000000000000000000000000000000BF
:1001400000000000000000000000000000000000AF
:0E0150000000000000000000000000000000A1
:10016000970100189381016A97820018938282E9AF
:100170001681170200181302E2E8170500001305A4
:100180006568731055307310203417030000130393
:10019000C36D0293171500001305C5849705001859
:1001A000938545E6170600181306C6E563FAC500F1
:1001B0008322050023A0550011059105E3EAC5FE41
:1001C000171500001305058297050018938585E330
:1001D00017060018130606E363FAC500832205001C
:1001E00023A0550011059105E3EAC5FE170500009F
:1001F0001305457F970500189385C5E0170600187D
:10020000130646E063FAC5008322050023A05500CB
:1002100011059105E3EAC5FE170500001305857C6D
:1002200097050018938505DE17060018130686DD6E
:1002300063FAC5008322050023A05500110591052E
:10024000E3EAC5FE170500001305C5799705000010
:10025000938545796300B50217060000130686787A
:1002600063FAC5008322050023A0550011059105FE
:10027000E3EAC5FE170500181305C5D89705001851
:10028000938545D86377B500232005001105E36DFC
:10029000B5FE170500181305E5D6970500189385D8
:1002A00065D66377B500232005001105E36DB5FE23
:1002B00017050018130505D597050018938585D4F3
:1002C0006377B500232005001105E36DB5FE170522
:1002D0000018130525D3970500189385A512898D5D
:1002E000232005004CC1170400001304A46F9704D9
:1002F00000009384246F6307940003230400110417
:100300000293D5BF01458145170300001303832ADB
:1003100002931703000013030355029301A017056E
:100320000000130525E48545F605637BB50089814A
:100330006378B500170500001305C5002E950285EA
:100340009302002073A0027D97020000938282CB6B
:100350007390723097020000938242617390C27E64
:1003600073E0C07E970200009382C24973905230BE
:1003700017030000130303DF0293411106C6752023
:100380000100B24041018280411106C6B717024008
:100390009843B71702401367170098C3B717024076
:1003A00091079443B717024091073707FFE03107E1
:1003B000758F98C3B71702409443B71702403707A9
:1003C000F7FE7D17758F98C3B71702409443B71790
:1003D00002403707FCFF7D17758F98C3B71702409F
:1003E00091079443B71702409107370701DF7D1744
:1003F000758F98C3B71702409387C70223A00700E1
:10040000B71702409443B71702403707F7EA7D1742
:10041000758F98C3B7170240A1073707FF0098C32D
:10042000A93F0100B24041018280411102C602C4CD
:10043000B71702409443B71702404167558F98C3DE
:10044000B24785073EC6B71702409843B707020078
:10045000F98F3EC4A24791E73247C167FD17E31108
:10046000F7FEB71702409843B7070200F98F91E3F0
:1004700001A0B717024013874700B7170240910742
:10048000184398C3B717024013874700B7170240B5
:100490009107184398C3B717024091079843B717BD
:1004A000024091071367074098C3B71702409107AE
:1004B0009443B717024091073707C4DF7D17758F44
:1004C00098C3B717024091079443B71702409107AA
:1004D00037072920558F98C3B71702409387C70263
:1004E0009443B71702409387C7023D77758F98C32F
:1004F000B71702409387C7029443B7170240938708
:10050000C7024167130717F1558F98C3B717024009
:100510009443B717024037070004558F98C3010072
:10052000B71702409843B7070008F98FF5DBB717F4
:1005300002409443B717024037070010558F98C305
:100540000100B71702409843B7070020F98FF5DB89
:10055000B71702409443B717024037070001558F81
:1005600098C30100B71702409843B7070002F98FFC
:10057000F5DBB717024091079843B7170240910780
:10058000719B98C3B717024091079843B717024071
:1005900091071367270098C30100B717024091071E
:0E05A0009C43A18BFDDB010001004101828024
:1005B000411106C613052060112413053060FD2A81
:1005C00085460D4693058004B717014013850780C3
:1005D000152885460D46C145B7170140138507C04C
:1005E00015208545B7170140138507804D2A2A87B6
:1005F0008547998F3E868545B7170140138507C00B
:100600009D2AC5B701112AC62EC432C236C002CCFB
:1006100002CAA247BD8B3ECCA247C18B89C76247A5
:100620009247D98F3ECC231F010041A88357E10197
:100630000247B357F700858BA5CFB2479C433ECA0C
:100640008357E1018A073D47B317F70093C7F7FFC8
:100650005247F98F3ECA8357E1018A076247B317B1
:10066000F7005247D98F3ECA224793078002631E84
:10067000F7008357E10105473317F700B247D10769
:10068000BE868247F98F9CC20DA022479307800443
:10069000631DF7008357E10105473317F700B247A1
:1006A000C107BE868247F98F9CC2B247524798C3A2
:1006B0008357E1018507231FF1000357E1019D479F
:1006C000E3F6E7F6A147231FF10069A88357E1018C
:1006D0000247B357F700858BC9C3B24791079C43C4
:1006E0003ECA8357E101E1178A073D47B317F70078
:1006F00093C7F7FF5247F98F3ECA8357E101E117CD
:100700008A076247B317F7005247D98F3ECA22477C
:1007100093078002631EF7008357E10105473317F3
:10072000F700B247D107BE868247F98F9CC20DA061
:10073000224793078004631DF7008357E1010547B3
:100740003317F700B247C107BE868247F98F9CC2B4
:10075000B24791073E87D2471CC38357E101850703
:10076000231FF1000357E101BD47E3F1E7F6010064
:1007700001000561828041112AC62EC432C292470F
:1007800099C7B247C1073E87A2471CC331A0B247F1
:10079000D1073E87A2471CC301004101828041115D
:1007A0002AC62EC4B247A1079843A247F98F99C31E
:1007B000854711A081473E85410182804111AA876A
:1007C0002317F1008357E1009983C207C1833E8755
:1007D000B7170240BA9798438357E100FD8B8546CF
:1007E000B397F6008356E1009982C206C18236862D
:1007F000B7160240B296D98F9CC201004101828097
:10080000397106C016C21AC41EC62AC82ECA32CCF6
:1008100036CE3AD03ED242D446D672D876DA7ADC98
:100820007EDE73252034F3251034170300001303F4
:100830004303029373101534824092422243B24321
:100840004245D2456246F246025792572258B25864
:10085000425ED25E625FF25F21617300203001A0D0
:10086000828082800000011106CE393E130570059A
:100870000928F920F36704303EC60100F240056103
:100880008280797106D62AC6B70700D22380070076
:10089000B70700D2AD0723800700B71700D23ECCC0
:1008A000B24792076247BA973ECAE2473ECE39A0A6
:1008B000F24723A00700F247C1073ECE7247D24756
:1008C000E368F7FE094515280100B25045618280B2
:1008D0004111AA87A307F100B70700D20347F1002F
:1008E0002380E700010041018280B70700D283C75F
:1008F000070093F7F70F3E858280797106D6AA87A5
:10090000A307F1008347F1008607A30FF100F13F31
:10091000AA87230FF1008347E101859B13F7F70FA7
:100920008347F101F98B93F7F70FD98FA30EF100ED
:100930008347D1013E85693F0100B2504561828005
:100940004111F32750303EC6B2473EC4A24793F749
:1009500007FC3EC4A24793E737003EC4A24773900A
:100960005730010041018280130141FB06C016C2CD
:100970001AC41EC62AC82ECA32CC36CE3AD03ED2AF
:1009800042D446D672D876DA7ADC7EDE7350E87EC0
:1009900073D0F87E7350B97EF390D07E82402243AC
:1009A000B2434245D2456246F24602579257225818
:1009B000B258425ED25E625FF25F73700430A6424C
:1009C0007390427C96427390123486427390223424
:0A09D00092421301C10473002030AD
:040000050800031ECE
:00000001FF
