:020000040800F2
:100000006F00E03100000000000000000000000070
:1000100000000000000000000000000000000000E0
:1000200000000000000000000000000000000000D0
:1000300000000000000000000000000000000000C0
:1000400000000000000000000000000000000000B0
:1000500000000000000000000000000000000000A0
:100060000000000000000000000000000000000090
:100070000000000000000000000000000000000080
:100080000000000000000000000000000000000070
:100090000000000000000000000000000000000060
:1000A0000000000000000000000000000000000050
:1000B0000000000000000000000000000000000040
:1000C0000000000000000000000000000000000030
:1000D0000000000000000000000000000000000020
:1000E0000000000000000000000000000000000010
:1000F0000000000000000000000000000000000000
:1001000000000000000000000000000000000000EF
:1001100000000000000000000000000000000000DF
:1001200000000000000000000000000000000000CF
:1001300000000000000000000000000000000000BF
:1001400000000000000000000000000000000000AF
:0E0150000000000000000000000000000000A1
:10016000970100189381016A97820018938282E9AF
:100170001681170200181302E2E8170500001305A4
:10018000254E7310553073102034170300001303ED
:1001900083530293170500001305456A970500185D
:1001A000938545E6170600181306C6E563FAC500F1
:1001B0008322050023A0550011059105E3EAC5FE41
:1001C000170500001305856797050018938585E3DB
:1001D00017060018130606E363FAC500832205001C
:1001E00023A0550011059105E3EAC5FE170500009F
:1001F0001305C564970500189385C5E01706001818
:10020000130646E063FAC5008322050023A05500CB
:1002100011059105E3EAC5FE170500001305056207
:1002200097050018938505DE17060018130686DD6E
:1002300063FAC5008322050023A05500110591052E
:10024000E3EAC5FE170500001305455F97050000AA
:100250009385C55E6300B502170600001306065EAF
:1002600063FAC5008322050023A0550011059105FE
:10027000E3EAC5FE170500181305C5D89705001851
:10028000938545D86377B500232005001105E36DFC
:10029000B5FE170500181305E5D6970500189385D8
:1002A00065D66377B500232005001105E36DB5FE23
:1002B00017050018130505D597050018938585D4F3
:1002C0006377B500232005001105E36DB5FE170522
:1002D0000018130525D3970500189385A512898D5D
:1002E000232005004CC11704000013042455970473
:1002F00000009384A45463079400032304001104B2
:100300000293D5BF01458145170300001303832ADB
:100310000293170300001303C33A029301A01705C9
:100320000000130525E48545F605637BB50089814A
:100330006378B500170500001305C5002E950285EA
:100340009302002073A0027D97020000938282CB6B
:100350007390723097020000938202477390C27EBE
:1003600073E0C07E970200009382822F7390523018
:1003700017030000130303DF0293411106C6752023
:100380000100B24041018280411106C6B717024008
:100390009843B71702401367170098C3B717024076
:1003A00091079443B717024091073707FFE03107E1
:1003B000758F98C3B71702409443B71702403707A9
:1003C000F7FE7D17758F98C3B71702409443B71790
:1003D00002403707FCFF7D17758F98C3B71702409F
:1003E00091079443B71702409107370701DF7D1744
:1003F000758F98C3B71702409387C70223A00700E1
:10040000B71702409443B71702403707F7EA7D1742
:10041000758F98C3B7170240A1073707FF0098C32D
:10042000A93F0100B24041018280411102C602C4CD
:10043000B71702409443B71702404167558F98C3DE
:10044000B24785073EC6B71702409843B707020078
:10045000F98F3EC4A24791E73247C167FD17E31108
:10046000F7FEB71702409843B7070200F98F91E3F0
:1004700001A0B717024013874700B7170240910742
:10048000184398C3B717024013874700B7170240B5
:100490009107184398C3B717024091079843B717BD
:1004A000024091071367074098C3B71702409107AE
:1004B0009443B717024091073707C4DF7D17758F44
:1004C00098C3B717024091079443B71702409107AA
:1004D00037072920558F98C3B71702409387C70263
:1004E0009443B71702409387C7023D77758F98C32F
:1004F000B71702409387C7029443B7170240938708
:10050000C7024167130717F1558F98C3B717024009
:100510009443B717024037070004558F98C3010072
:10052000B71702409843B7070008F98FF5DBB717F4
:1005300002409443B717024037070010558F98C305
:100540000100B71702409843B7070020F98FF5DB89
:10055000B71702409443B717024037070001558F81
:1005600098C30100B71702409843B7070002F98FFC
:10057000F5DBB717024091079843B7170240910780
:10058000719B98C3B717024091079843B717024071
:1005900091071367270098C30100B717024091071E
:0E05A0009C43A18BFDDB010001004101828024
:1005B000011106CE8945B727014013850740A128C0
:1005C0002A878547E318F7FEB727014013850740C0
:1005D0000528AA873EC632479307000863DAE7007A
:1005E00001468545B7170140138507C0A120D9B73B
:1005F00005468545B7170140138507C025285DBF0F
:1006000041112AC6B2479387C7049C43C207C183DE
:100610003E854101828001112AC62EC402CEB24716
:100620009843A247F98F99C385473ECEF2473E854E
:100630000561828041112AC62EC432C2924799C7F1
:10064000B247C1073E87A2471CC331A0B247D107BA
:100650003E87A2471CC3010041018280397106C058
:1006600016C21AC41EC62AC82ECA32CC36CE3AD0FA
:100670003ED242D446D672D876DA7ADC7EDE732554
:100680002034F325103417030000130343030293AF
:1006900073101534824092422243B2434245D24500
:1006A0006246F246025792572258B258425ED25ED4
:1006B000625FF25F21617300203001A0828082803E
:1006C0000000011106CEC931130570050928F92073
:1006D000F36704303EC60100F24005618280797103
:1006E00006D62AC6B70700D223800700B70700D274
:1006F000AD0723800700B71700D23ECCB247920760
:100700006247BA973ECAE2473ECE39A0F24723A0DD
:100710000700F247C1073ECE7247D247E368F7FEB3
:10072000094515280100B250456182804111AA8710
:10073000A307F100B70700D20347F1002380E700C9
:10074000010041018280B70700D283C7070093F7F9
:10075000F70F3E858280797106D6AA87A307F1003C
:100760008347F1008607A30FF100F13FAA87230F0B
:10077000F1008347E101859B13F7F70F8347F101F0
:10078000F98B93F7F70FD98FA30EF1008347D101AF
:100790003E85693F0100B250456182804111F327D7
:1007A00050303EC6B2473EC4A24793F707FC3EC452
:1007B000A24793E737003EC4A24773905730010029
:1007C00041018280130141FB06C016C21AC41EC635
:1007D0002AC82ECA32CC36CE3AD03ED242D446D6E1
:1007E00072D876DA7ADC7EDE7350E87E73D0F87EDB
:1007F0007350B97EF390D07E82402243B24342458B
:10080000D2456246F246025792572258B258425E8B
:10081000D25E625FF25F73700430A6427390427CD6
:10082000964273901234864273902234924213019E
:06083000C104730020303A
:040000050800031ECE
:00000001FF
