:020000040800F2
:100000006F00E03100000000000000000000000070
:1000100000000000000000000000000000000000E0
:1000200000000000000000000000000000000000D0
:1000300000000000000000000000000000000000C0
:1000400000000000000000000000000000000000B0
:1000500000000000000000000000000000000000A0
:100060000000000000000000000000000000000090
:100070000000000000000000000000000000000080
:100080000000000000000000000000000000000070
:100090000000000000000000000000000000000060
:1000A0000000000000000000000000000000000050
:1000B0000000000000000000000000000000000040
:1000C0000000000000000000000000000000000030
:1000D0000000000000000000000000000000000020
:1000E0000000000000000000000000000000000010
:1000F0000000000000000000000000000000000000
:1001000000000000000000000000000000000000EF
:1001100000000000000000000000000000000000DF
:1001200000000000000000000000000000000000CF
:1001300000000000000000000000000000000000BF
:1001400000000000000000000000000000000000AF
:0E0150000000000000000000000000000000A1
:10016000970100189381016A97820018938282E9AF
:100170001681170200181302E2E817150000130594
:1001800025897310553073102034171300001303A2
:10019000838E0293171500001305459B97050018E1
:1001A000938545E6170600181306C6E563FAC500F1
:1001B0008322050023A0550011059105E3EAC5FE41
:1001C000171500001305859897050018938585E39A
:1001D00017060018130606E363FAC500832205001C
:1001E00023A0550011059105E3EAC5FE171500008F
:1001F0001305C595970500189385C5E017060018E7
:10020000130646E063FAC5008322050023A05500CB
:1002100011059105E3EAC5FE1715000013050593C6
:1002200097050018938505DE17060018130686DD6E
:1002300063FAC5008322050023A05500110591052E
:10024000E3EAC5FE17150000130545909715000059
:100250009385C58F6300B502171600001306068F3D
:1002600063FAC5008322050023A0550011059105FE
:10027000E3EAC5FE170500181305C5D89705001851
:10028000938545D86377B500232005001105E36DFC
:10029000B5FE170500181305E5D6970500189385D8
:1002A00065D66377B500232005001105E36DB5FE23
:1002B00017050018130505D597050018938585D4F3
:1002C0006377B500232005001105E36DB5FE170522
:1002D0000018130525D3970500189385A512898D5D
:1002E000232005004CC11714000013042486971422
:1002F00000009384A4856307940003230400110481
:100300000293D5BF014581451703000013038326DF
:100310000293170300001303C375029301A017058E
:100320000000130525E48545F605637BB50089814A
:100330006378B500170500001305C5002E950285EA
:100340009302002073A0027D97020000938282CB6B
:100350007390723097020000938202787390C27E8D
:1003600073E0C07E970200009382826A73905230DD
:1003700017030000130303DF0293B71702409843EB
:10038000B706FFE0B1061367170098C3D8433706D6
:10039000F7EA7D16758FD8C39843B706F7FEFD16AA
:1003A000758F98C39843B706FCFFFD16758F98C3E9
:1003B000D843B70601DFFD16758FD8C323A6070201
:1003C0009843C165718F98C33707FF0098C794435E
:1003D0001387F5FF37160240CD8E94C3B70602008F
:1003E00011A009C71C427D17F58FE5DFB717024042
:1003F0009843B7060200758F59CFD8433706C4DF3C
:100400007D16D8C3D843B7052920D8C3D84313676E
:100410000740D8C3D44337170240F18ED4C3D0432A
:10042000B70600084D8ED0C3D057BD756D8ED0D79E
:10043000D057C165938515F14D8ED0D79043B70540
:1004400000044D8E90C31C43F58FF5DF1C43370627
:100450000010B7160240D18F1CC3370700209C4202
:10046000F98FF5DF9C423706000137170240D18F24
:100470009CC2B70600021C43F58FF5DF5C43B7163C
:100480000240F19B5CC35C4393E727005CC3DC4202
:08049000A18BF5DF828001A0C1
:1004980041111305306006C622C4E1293714014012
:1004A800130504C085460D46C1452121130504C026
:1004B80089460D46C145F52E130504C02244B240B5
:1004C800930600020D46C1454101E5A641111305F9
:1004D800906006C622C471290145D5211305206004
:1004E80049293715014085460D4681451305058084
:1004F800372401407D2E13050440DD2001451522D7
:1005080005461305044089452D2A130504408145F5
:10051800492A0546130504408545D92A1305044090
:1005280089659D2E81461305044001468145312485
:100538001305044037060E008545752C054613053E
:1005480004408545DD24896513050440B12613055B
:100558000440B522130504409D2A13050440224493
:10056800B2408545410129A6011126CA4AC8B714D7
:1005780001403729014006CE4EC652C456C222CC8D
:10058800130909403137930900048937938404C05B
:10059800930A0008130A000C4A85DD2C2A84854535
:1005A800268563D58902E1262685894563D28A0294
:1005B8007D2E930500022685635F8A004D2E4A85AD
:1005C800C12C2A8485452685E3CF89FC8545712E73
:1005D80089452685592E93050002268579266DBF03
:1005E8004111B727014006C693870740630BF50002
:1005F800B737014093870780630DF500B24041018A
:100608008280130590305126B24013059030410185
:1006180049AE1305A030952EB2401305A030410114
:1006280049A6B727014003A74740B706F1FFFD16C3
:10063800758F23A2E74003A74740498F23A2E740CD
:10064800828093F7051005C689C75C4193E70710B8
:100658005CC193F7054089C75C4193E707405CC1DB
:10066800898981CD1C4593E727001CC5828095E3C5
:1006780093F7054081EB898991E182801C45F59BC0
:100688001CC582805C41898993F7F7BF5CC1F5D5A9
:10069800F5B75C4193F7F7EF5CC193F70540E1DFED
:1006A800D5B71C4599C5056713070780D98F1CC5A1
:1006B80082807D771307F77FF98F1CC582801C45E0
:1006C800858B89E71C4593E717001CC582801C456C
:1006D8001307850093E787001CC51C43A18BF5FF12
:1006E8001C4593E747001CC51C43918BF5FF82808E
:1006F80085476385F50289476391F5021C5D3707D5
:10070800D0FF7D17F98F1CDD1C5D7D16520637075B
:100718003000798E5D8E10DD828082805C553707CF
:1007280010FF7D17F98F5CD55C557D16520637078B
:10073800F000798E5D8E50D58280954763E2B704CC
:1007480093972500BE955859FD47B397B70093C7AF
:10075800F7FFF98FB315B600DD8D4CD9A54763E6D1
:10076800C704931716003E9618499D47B397C700CC
:1007780093C7F7FFF98F3396C6005D8E10C9828044
:10078800AD4763E7B704E91593972500BE95185957
:10079800FD47B397B70093C7F7FFF98FB315B600B6
:1007A800DD8D0CD9A547E3FEC7FAC54763E1C7024B
:1007B8005916131716004C453A969D47B397C7002C
:1007C80093C7F7FFED8FB396C600DD8E54C58280C0
:1007D800BD47E3E5B7F8D11593972500BE95585561
:1007E800FD47B397B70093C7F7FFF98FB315B60066
:1007F800DD8D4CD5A5B78547638FF5008947639B89
:10080800F5001C4565777D17F98F1CC51C455D8E65
:1008180010C5828082801C453707F2FF7D17F98F4B
:100828001CC51C455D8E10C5828093F7150011CE3E
:1008380091C71C4537071000D98F1CC5898989C9FC
:100848001C452167D98F1CC5828091EB898991E16C
:1008580082801C4561777D17F98F1CC582801C45F5
:100868003707F0FF7D17F98F1CC58989F5D1D5B7F2
:1008780093F7150091C71C4537074000D98F1CC551
:10088800898991C51C4537072000D98F1CC58280EE
:1008980068454205418182808327050875777D1761
:1008A800F98F2320F50883270508CD8F2320F50825
:1008B800828093F7050113F3F50099C33363C300EE
:1008C80081473D4E930E8002130F8004854FA14847
:1008D8001396270033D7F6003318CE00058B13483C
:1008E800F8FF3316C30019CB18413378E800336694
:1008F80006016382D5076386E50510C18507E3997C
:1009080017FD0148BD4E130F8002930F80048542E6
:10091800414E33D6F60033970E01058A1347F7FF89
:10092800B318030111CA5041718F33E7E800638996
:10093800E503638DF50158C185071108E39BC7FDE1
:1009480082803397FF00758F18C945BF3396F20030
:10095800758E10C9CDB73397FF00758F58C971BF11
:100968003396F200758E50C9F9B70CC982804CC90C
:10097800828013576500B71702403E971443854796
:100988003395A700558D08C3828013576500B717A4
:1009980002403E97144385473395A700558D08C3F9
:1009A8008280B7170240135765003E971443854766
:1009B800B397A70093C7F7FFF58F1CC38280B717BB
:1009C8000240DC433747FFEF7D179546F98F6300F8
:1009D800D50263EBA60011476304E5003A05C98F09
:1009E800371702405CC382801D47E31BE5FE317761
:1009F8003A05798DC98F37070010D98F371702400C
:100A08005CC38280397106C016C21AC41EC62AC8C1
:100A18002ECA32CC36CE3AD03ED242D446D672D83E
:100A280076DA7ADC7EDE73252034F325103417035A
:100A3800000013034303029373101534824092425B
:100A48002243B2434245D2456246F2460257925784
:100A58002258B258425ED25E625FF25F2161730033
:100A6800203001A0828082800000411106C6113228
:100A78001305700539209120F3670430B240410115
:100A88008280370700D2230007001205B71700D26B
:100A9800A30507003E9563F7A70023A00700C10739
:100AA800E3EDA7FE370700D28347070093F7170E39
:100AB80093E747002300F7008280F327503093F72D
:100AC80007FC93E73700739057308280130141FB8E
:100AD80006C016C21AC41EC62AC82ECA32CC36CEC2
:100AE8003AD03ED242D446D672D876DA7ADC7EDE66
:100AF8007350E87E73D0F87E7350B97EF390D07E41
:100B080082402243B2434245D2456246F2460257EA
:100B180092572258B258425ED25E625FF25F73709B
:100B28000430A6427390427C9642739012348642F7
:0E0B38007390223492421301C10473002030E6
:040000050800031ECE
:00000001FF
