:020000040800F2
:100000006F00E03100000000000000000000000070
:1000100000000000000000000000000000000000E0
:1000200000000000000000000000000000000000D0
:1000300000000000000000000000000000000000C0
:1000400000000000000000000000000000000000B0
:1000500000000000000000000000000000000000A0
:100060000000000000000000000000000000000090
:100070000000000000000000000000000000000080
:100080000000000000000000000000000000000070
:100090000000000000000000000000000000000060
:1000A0000000000000000000000000000000000050
:1000B0000000000000000000000000000000000040
:1000C0000000000000000000000000000000000030
:1000D0000000000000000000000000000000000020
:1000E0000000000000000000000000000000000010
:1000F0000000000000000000000000000000000000
:1001000000000000000000000000000000000000EF
:1001100000000000000000000000000000000000DF
:1001200000000000000000000000000000000000CF
:1001300000000000000000000000000000000000BF
:1001400000000000000000000000000000000000AF
:0E0150000000000000000000000000000000A1
:10016000970100189381016A97820018938282E9AF
:100170001681170200181302E2E8170500001305A4
:1001800025457310553073102034170300001303F6
:10019000834A029317050000130545579705001879
:1001A000938545E6170600181306C6E563FAC500F1
:1001B0008322050023A0550011059105E3EAC5FE41
:1001C000170500001305855497050018938585E3EE
:1001D00017060018130606E363FAC500832205001C
:1001E00023A0550011059105E3EAC5FE170500009F
:1001F0001305C551970500189385C5E0170600182B
:10020000130646E063FAC5008322050023A05500CB
:1002100011059105E3EAC5FE170500001305054F1A
:1002200097050018938505DE17060018130686DD6E
:1002300063FAC5008322050023A05500110591052E
:10024000E3EAC5FE170500001305454C97050000BD
:100250009385C54B6300B502170600001306064BD5
:1002600063FAC5008322050023A0550011059105FE
:10027000E3EAC5FE170500181305C5D89705001851
:10028000938545D86377B500232005001105E36DFC
:10029000B5FE170500181305E5D6970500189385D8
:1002A00065D66377B500232005001105E36DB5FE23
:1002B00017050018130505D597050018938585D4F3
:1002C0006377B500232005001105E36DB5FE170522
:1002D0000018130525D3970500189385A512898D5D
:1002E000232005004CC11704000013042442970486
:1002F00000009384A44163079400032304001104C5
:100300000293D5BF0145814517030000130303196C
:100310000293170300001303C331029301A01705D2
:100320000000130525E48545F605637BB50089814A
:100330006378B500170500001305C5002E950285EA
:100340009302002073A0027D97020000938282CB6B
:100350007390723097020000938202347390C27ED1
:1003600073E0C07E97020000938282267390523021
:1003700017030000130303DF0293B71702409843EB
:10038000B706FFE0B1061367170098C3D8433706D6
:10039000F7EA7D16758FD8C39843B706F7FEFD16AA
:1003A000758F98C39843B706FCFFFD16758F98C3E9
:1003B000D843B70601DFFD16758FD8C323A6070201
:1003C0009843C165718F98C33707FF0098C794435E
:1003D0001387F5FF37160240CD8E94C3B70602008F
:1003E00011A009C71C427D17F58FE5DFB717024042
:1003F0009843B7060200758F59CFD8433706C4DF3C
:100400007D16D8C3D843B7052920D8C3D84313676E
:100410000740D8C3D44337170240F18ED4C3D0432A
:10042000B70600084D8ED0C3D057BD756D8ED0D79E
:10043000D057C165938515F14D8ED0D79043B70540
:1004400000044D8E90C31C43F58FF5DF1C43370627
:100450000010B7160240D18F1CC3370700209C4202
:10046000F98FF5DF9C423706000137170240D18F24
:100470009CC2B70600021C43F58FF5DF5C43B7163C
:100480000240F19B5CC35C4393E727005CC3DC4202
:08049000A18BF5DF828001A0C1
:1004980041111305206006C622C426C2012A13058D
:1004A80030602922371401401305048085460D4623
:1004B800930580043520130504C0930600020D46F9
:1004C800C145930404802928130404C08545268562
:1004D800C9280546098E9305000222857528FDB7AF
:1004E80093F7050113F3F50099C33363C3008147FC
:1004F8003D4E930E8002130F8004854FA14813963A
:10050800270033D7F6003318CE00058B1348F8FFC1
:100518003316C30019CB18413378E8003366060157
:100528006382D5076386E50510C18507E39917FD42
:100538000148BD4E130F8002930F80048542414E3F
:1005480033D6F60033970E01058A1347F7FFB31821
:10055800030111CA5041718F33E7E8006389E5034D
:10056800638DF50158C185071108E39BC7FD82809B
:100578003397FF00758F18C945BF3396F200758E03
:1005880010C9CDB73397FF00758F58C971BF33961F
:10059800F200758E50C9F9B719C20CC982804CC9CE
:1005A800828008456D8D3335A00082801357650021
:1005B800B71702403E97144385473395A700558DDA
:1005C80008C38280397106C016C21AC41EC62AC85A
:1005D8002ECA32CC36CE3AD03ED242D446D672D883
:1005E80076DA7ADC7EDE73252034F325103417039F
:1005F80000001303430302937310153482409242A0
:100608002243B2434245D2456246F24602579257C8
:100618002258B258425ED25E625FF25F2161730077
:10062800203001A0828082800000411106C69133EB
:100638001305700539209120F3670430B240410159
:100648008280370700D2230007001205B71700D2AF
:10065800A30507003E9563F7A70023A00700C1077D
:10066800E3EDA7FE370700D28347070093F7170E7D
:1006780093E747002300F7008280F327503093F771
:1006880007FC93E73700739057308280130141FBD2
:1006980006C016C21AC41EC62AC82ECA32CC36CE06
:1006A8003AD03ED242D446D672D876DA7ADC7EDEAA
:1006B8007350E87E73D0F87E7350B97EF390D07E85
:1006C80082402243B2434245D2456246F24602572F
:1006D80092572258B258425ED25E625FF25F7370E0
:1006E8000430A6427390427C96427390123486423C
:0E06F8007390223492421301C104730020302B
:040000050800031ECE
:00000001FF
