:020000040800F2
:100000006F00E03100000000000000000000000070
:1000100000000000000000000000000000000000E0
:1000200000000000000000000000000000000000D0
:1000300000000000000000000000000000000000C0
:1000400000000000000000000000000000000000B0
:1000500000000000000000000000000000000000A0
:100060000000000000000000000000000000000090
:100070000000000000000000000000000000000080
:100080000000000000000000000000000000000070
:100090000000000000000000000000000000000060
:1000A0000000000000000000000000000000000050
:1000B000000000000000000000000000A205000891
:1000C0000000000000000000000000000000000030
:1000D0000000000000000000000000000000000020
:1000E0000000000000000000000000000000000010
:1000F0000000000000000000000000000000000000
:1001000000000000000000000000000000000000EF
:1001100000000000000000000000000000000000DF
:1001200000000000000000000000000000000000CF
:1001300000000000000000000000000000000000BF
:1001400000000000000000000000000000000000AF
:0E0150000000000000000000000000000000A1
:10016000970100189381016A97820018938282E9AF
:100170001681170200181302E2E817150000130594
:1001800025AB731055307310203417130000130380
:1001900083B00293171500001305C5C99705001811
:1001A000938545E6170600181306C6E563FAC500F1
:1001B0008322050023A0550011059105E3EAC5FE41
:1001C00017150000130505C797050018938585E3EB
:1001D00017060018130606E363FAC500832205001C
:1001E00023A0550011059105E3EAC5FE171500008F
:1001F000130545C4970500189385C5E01706001838
:10020000130646E063FAC5008322050023A05500CB
:1002100011059105E3EAC5FE17150000130585C118
:1002200097050018938505DE17060018130686DD6E
:1002300063FAC5008322050023A05500110591052E
:10024000E3EAC5FE171500001305C5BE97150000AB
:10025000938545BE6300B50217160000130686BDE0
:1002600063FAC5008322050023A0550011059105FE
:10027000E3EAC5FE170500181305C5D89705001851
:10028000938545D86377B500232005001105E36DFC
:10029000B5FE170500181305E5D6970500189385D8
:1002A00065D66377B500232005001105E36DB5FE23
:1002B00017050018130505D5970500189385C5D4B3
:1002C0006377B500232005001105E36DB5FE170522
:1002D0000018130525D4970500189385A513898D5B
:1002E000232005004CC1171400001304A4B4971474
:1002F0000000938424B463079400032304001104D2
:100300000293D5BF01458145170300001303C3269F
:100310000293171300001303C397029301A017055C
:100320000000130525E48545F605637BB50089814A
:100330006378B500170500001305C5002E950285EA
:100340009302002073A0027D97020000938282CB6B
:100350007390723097120000938282957390C27EE0
:1003600073E0C07E971200009382828C73905230AB
:1003700017030000130303DF0293B71702409843EB
:10038000B706FFE0B1061367170098C3D8433706D6
:10039000F7EA7D16758FD8C39843B706F7FEFD16AA
:1003A000758F98C39843B706FCFFFD16758F98C3E9
:1003B000D843B70601DFFD16758FD8C323A6070201
:1003C0009843C165718F98C33707FF0098C794435E
:1003D0001387F5FF37160240CD8E94C3B70602008F
:1003E00011A009C71C427D17F58FE5DFB717024042
:1003F0009843B7060200758F59CFD8433706C4DF3C
:100400007D16D8C3D843B7052920D8C3D84313676E
:100410000740D8C3D44337170240F18ED4C3D0432A
:10042000B70600084D8ED0C3D057BD756D8ED0D79E
:10043000D057C165938515F14D8ED0D79043B70540
:1004400000044D8E90C31C43F58FF5DF1C43370627
:100450000010B7160240D18F1CC3370700209C4202
:10046000F98FF5DF9C423706000137170240D18F24
:100470009CC2B70600021C43F58FF5DF5C43B7163C
:100480000240F19B5CC35C4393E727005CC3DC4202
:08049000A18BF5DF828001A0C1
:1004980041111305206006C622C49124130530605B
:1004A8003D2C371401401305048085460D469305FD
:1004B8008004992A130504C085460D46C145A92222
:1004C800130504C02244B240930600020D46C145FC
:1004D80041011DAA7971014685451305F00206D62A
:1004E80022D4EF00B00313050070D52A3705004069
:1004F8002D2C0808C52CA967938707C40C08054448
:10050800370500403ECC22C8231A0100231E0100F3
:10051800F524480045265000814537050040231240
:1005280081002314010023160100552615661306C1
:1005380006E2814537050040A92501468145370572
:100548000040D5230146814537050040A92D89453E
:10055800370500407D253705004089457D2D370545
:100568000040A126B250225445618280411122C424
:100578003714014006C626C2213F93040480EF00C9
:100588008079130404C0B937854526853D2A054678
:10059800098E854522852D22C5BF4111894537051C
:1005A800004006C622C4952585476306F500B2407B
:1005B800224441018280B7070020938707009843AF
:1005C800050798C39C431307803EB3F7E70281CB26
:1005D8002244B24089453705004041013DAD3714FA
:1005E800014093050002130504C0ED2013361500E1
:1005F80093050002130504C0E1202244B240894556
:1006080037050040410111AD93F7050113F3F500DB
:1006180099C33363C30081473D4E930E8002130F85
:100628008004854FA1481396270033D7F600331866
:10063800CE00058B1348F8FF3316C30019CB1841B9
:100648003378E800336606016382D5076386E505DB
:1006580010C18507E39917FD0148BD4E130F8002AD
:10066800930F80048542414E33D6F60033970E012E
:10067800058A1347F7FFB318030111CA5041718F58
:1006880033E7E8006389E503638DF50158C1850701
:100698001108E39BC7FD82803397FF00758F18C947
:1006A80045BF3396F200758E10C9CDB73397FF005A
:1006B800758F58C971BF3396F200758E50C9F9B756
:1006C80019C20CC982804CC9828008456D8D3335AA
:1006D800A000828048456D8D3335A0008280135775
:1006E8006500B71702403E97144385473395A70026
:1006F800558D08C3828013576500B71702403E978F
:10070800144385473395A700558D08C38280B717D2
:100718000240135765003E9714438547B397A700D7
:1007280093C7F7FFF58F1CC382804111B7170040AC
:1007380006C6138707C0630CE5066364A70237077C
:10074800004093060740630CD50693870780631C17
:10075800F502130520404537B240130520404101FA
:100768007DB7138707406304E50637370140130751
:1007780007C06314E5021305B030B53FB240130556
:10078800B030410169B7631CE50413050040A53783
:10079800B2401305004041019DBF6312F5041305E3
:1007A8004040913FB2401305404041018DB71305C9
:1007B80030409137B24013053040410189BF1305DD
:1007C8001040153FB24013051040410189B7130589
:1007D80050401537B2401305504041010DBFB2409B
:1007E80041018280C167FD172320050023120500FF
:1007F8001CC52316050023070500828083D7050042
:1008080003D745001CD5B7370140938707C0418BF4
:10081800630DF502FD779387F73FE98FB706004030
:100828006385D7021C41BD9B1CC11C415D8F18C14B
:1008380094459377F5BF3717004054D5639DE70279
:100848005C4993E717005CC98280144183D725006F
:1008580093F6F6F814C1144193F70706D58F1CC117
:100868001C415D8F18C194459377F5BF3717004039
:1008780054D5E387E7FC184183D7C500B736014054
:100888001377F7CF18C1104193F70730138706C0C5
:10089800D18F1CC1E316E5FA83C7E50023A8F6C289
:1008A8005C4993E717005CC982801C4193E71700F5
:1008B8001CC18280231005002311050023120500A6
:1008C800231305002314050023150500828089479A
:1008D8006384F50C63E1B704C1C5145103570600DE
:1008E80083574600BD9A14D1145112079207558FA9
:1008F80018D1145137370140930507C093F6F6FD18
:1009080014D11451D58F1CD1630CB51A1C4D93F713
:10091800F7CF1CCD82808D476393F5041C517D77FA
:100928007D17F98F1CD1835706001851F976B20745
:10093800D98F1CD11851FD1683574600758F18D1D1
:100948001451B20737370140D58F1CD1930707C020
:100958006308F5145C4D93F7F7CF5CCD82808280F5
:100968001C518356060003574600F99B1CD10328E7
:100978000502B7370140938507C0B3E6060114D1D5
:100988001451F59A14D11451558F18D1630DB50A25
:100998001C4DF19B1CCD82801451035706008357D0
:1009A800460093F6F6EF14D114512207A207558F8B
:1009B80018D1145137370140930507C093F6F6DF75
:1009C80014D11451D58F1CD16306B5005C4DF19B31
:1009D8005CCD82800C5183572600FD7693F5F5BFD8
:1009E8000CD10C51A2079388F67FCD8F1CD1032818
:1009F80005029385F6FF83576600B376180114D174
:100A080003280502A20783568600B3E707011CD115
:100A1800832747C09206FD8D2322B7C0832547C090
:100A28008357A6007976CD8E2322D7C0832647C068
:100A38007D169207F18E2322D7C0832647C0D58F13
:100A48002322F7C061B71851835566000358260062
:100A58006D9B18D183280502835686000357A6008C
:100A68003366180110D110515D9A10D110514D8E76
:100A780010D103A647C01376F6EF23A2C7C003A67A
:100A880047C0D18E23A2D7C083A647C093F6F6DF0E
:100A980023A2D7C083A647C0558F23A2E7C0CDBDE8
:100AA800832647C0F177FD17FD8E835786002322E2
:100AB800D7C0832647C09A07D58F2322F7C059BDD0
:100AC8000C51835626008357660093F5F5FB0CD12D
:100AD8000C5192069207CD8E14D10C518356860084
:100AE80093F5F5F70CD10C518A06CD8F1CD18325CF
:100AF80047C08357A60013F6F5BF2322C7C00326B5
:100B080047C08A07D18E2322D7C0832647C07D7667
:100B18001306F67FF18E2322D7C0832647C0D58FD0
:100B28002322F7C0E5B389476385F50463EDB70071
:100B38008DC91C4D65777D17F98F1CCD1C4D22067C
:100B48005D8E10CD82808D47639CF5005C4D657786
:100B58007D17F98F5CCD5C4D22065D8E50CD82806D
:100B680082801C4D93F7F7F81CCD1C4D5D8E10CD7F
:100B780082805C4D93F7F7F85CCD5C4D5D8E50CD6F
:100B880082808947638FF50063E5B70089C910DD66
:100B980082808D476394F50030C18280828050D96D
:100BA800828050DD828089476386F50463EEB70052
:100BB8009DC91C4D7D771307F77FF98F1CCD1C4D00
:100BC80022065D8E10CD82808D47639DF5005C4DB9
:100BD8007D771307F77FF98F5CCD5C4D22065D8E1C
:100BE80050CD828082801C4DDD9B1CCD1C4D5D8EBE
:100BF80010CD82805C4DDD9B5CCD5C4D5D8E50CD13
:100C080082805C45CD8F5CC582805C4508496D8DCE
:100C180001C5FD8D3335B000828093C5F5FF0CC941
:100C280082800000397106C016C21AC41EC62AC8BE
:100C38002ECA32CC36CE3AD03ED242D446D672D81C
:100C480076DA7ADC7EDE73252034F3251034170338
:100C58000000130343030293731015348240924239
:100C68002243B2434245D2456246F2460257925762
:100C78002258B258425ED25E625FF25F2161730011
:100C8800203001A0828082800000411106C6EFF06A
:100C98004FEE130570057D20AD2AF3670430B2408E
:100CA80041018280130141FB06C016C21AC41EC648
:100CB8002AC82ECA32CC36CE3AD03ED242D446D6F4
:100CC80072D876DA7ADC7EDE7350E87E73D0F87EEE
:100CD8007350B97EF390D07E82402243B24342459E
:100CE800D2456246F246025792572258B258425E9F
:100CF800D25E625FF25F73700430A6427390427CEA
:100D080096427390123486427390223492421301B1
:100D1800C10473002030F36704308280411106C695
:100D280022C426C24AC02A84B2842E893528CA859C
:100D38002285A12022852244B2400249A6859244F8
:100D4800410141A0370700D2230007001205B71759
:100D580000D2A30507003E9563F7A70023A007006C
:100D6800C107E3EDA7FE8280B71700D285070A0501
:100D78003E9585472300F5008280B70700D203C758
:100D88000700914705833D8BBA8663F3E7009146D8
:100D9800B71700D28D070A053E958347050013F65D
:100DA800F60F2147B397D70093F7F70F118FB3D7F3
:100DB800D740B395E500CD8F93F7F70F2300F500E3
:100DC8008280B70700D203C707001377F70F0583A0
:100DD8009377C7008DEFB71600D20A058D06AA963D
:100DE80083C7060021463D8B3307E64093F7F70F8C
:100DF800B3D7E740920593F7F70F13F5F50FB397BD
:100E0800E700C98F93F7F70F2380F600828001452A
:100E18008280F327503093F707FC93E737007390ED
:040E2800573082803D
:040000050800031ECE
:00000001FF
