:020000040800F2
:100000006F0020320000000000000000000000002F
:1000100000000000000000000000000000000000E0
:1000200000000000000000000000000000000000D0
:1000300000000000000000000000000000000000C0
:1000400000000000000000000000000000000000B0
:1000500000000000000000000000000000000000A0
:100060000000000000000000000000000000000090
:100070000000000000000000000000000000000080
:100080000000000000000000000000000000000070
:100090000000000000000000000000000000000060
:1000A0000000000000000000000000000000000050
:1000B0000000000000000000000000000000000040
:1000C0000000000000000000000000000000000030
:1000D0000000000000000000000000000000000020
:1000E0000000000000000000000000000000000010
:1000F0000000000000000000000000000000000000
:1001000000000000000000000000000000000000EF
:1001100000000000000000000000000000000000DF
:1001200000000000000000000000000000000000CF
:1001300000000000000000000000000000000000BF
:1001400000000000000000000000000000000000AF
:0E0150000000000000000000000000000000A1
:10016000970100189381016A97820018938282E9AF
:100170001681170200181302E2E817150000130594
:10018000657F73105530731020341723000013035C
:10019000C3840293172500001305459D9705001899
:1001A000938545E6170600181306C6E563FAC500F1
:1001B0008322050023A0550011059105E3EAC5FE41
:1001C000172500001305859A97050018938585E388
:1001D00017060018130606E363FAC500832205001C
:1001E00023A0550011059105E3EAC5FE172500007F
:1001F0001305C597970500189385C5E017060018E5
:10020000130646E063FAC5008322050023A05500CB
:1002100011059105E3EAC5FE1725000013050595B4
:1002200097050018938505DE17060018130686DD6E
:1002300063FAC5008322050023A05500110591052E
:10024000E3EAC5FE17250000130545929725000037
:100250009385C5916300B502172600001306069129
:1002600063FAC5008322050023A0550011059105FE
:10027000E3EAC5FE170500181305C5D89705001851
:10028000938545D86377B500232005001105E36DFC
:10029000B5FE170500181305E5D6970500189385D8
:1002A00065D66377B500232005001105E36DB5FE23
:1002B00017050018130505D5970500189385C5D4B3
:1002C0006377B500232005001105E36DB5FE170522
:1002D0000018130525D4970500189385A513898D5B
:1002E000172300001303E38602931724000013046E
:1002F000E4879724000093846487630794000323B2
:10030000040011040293D5BF014581451703000085
:100310001303832A0293171300001303C36B029382
:1003200001A0170500001305E5E38545F605637B8D
:10033000B50089816378B500170500001305C50075
:100340002E9502859302002073A0027D9702000083
:10035000938242CB7390723097120000938242785E
:100360007390C27E73E0C07E971200009382826019
:1003700073905230170300001303C3DE0293411140
:1003800006C675200100B24041018280411106C6B7
:10039000B71702409843B71702401367170098C376
:1003A000B717024091079443B717024091073707E8
:1003B000FFE03107758F98C3B71702409443B71712
:1003C00002403707F7FE7D17758F98C3B7170240B5
:1003D0009443B71702403707FCFF7D17758F98C30A
:1003E000B717024091079443B717024091073707A8
:1003F00001DF7D17758F98C3B71702409387C70237
:1004000023A00700B71702409443B71702403707ED
:10041000F7EA7D17758F98C3B7170240A107370712
:10042000FF0098C3A93F0100B24041018280411101
:1004300002C602C4B71702409443B717024041678F
:10044000558F98C3B24785073EC6B71702409843F9
:10045000B7070200F98F3EC4A24791E73247C16750
:10046000FD17E311F7FEB71702409843B7070200E4
:10047000F98F91E301A0B717024013874700B71720
:1004800002409107184398C3B717024013874700EB
:10049000B71702409107184398C3B7170240910756
:1004A0009843B717024091071367074098C3B717DF
:1004B000024091079443B717024091073707C4DF02
:1004C0007D17758F98C3B717024091079443B717EC
:1004D0000240910737072920558F98C3B71702406C
:1004E0009387C7029443B71702409387C7023D77AB
:1004F000758F98C3B71702409387C7029443B71705
:1005000002409387C7024167130717F1558F98C3BD
:10051000B71702409443B717024037070004558FBE
:1005200098C30100B71702409843B7070008F98F36
:10053000F5DBB71702409443B717024037070010A6
:10054000558F98C30100B71702409843B7070020A2
:10055000F98FF5DBB71702409443B717024037070E
:100560000001558F98C30100B71702409843B707A1
:100570000002F98FF5DBB717024091079843B717D0
:1005800002409107719B98C3B717024091079843A7
:10059000B717024091071367270098C30100B717E8
:1005A000024091079C43A18BFDDB0100010041014A
:0205B000828047
:1005B400011106CE3D20F528B727014013850740D9
:1005C400EF006076AA873EC63247BA879607998FAE
:1005D4003E868545B707004013850740EF10202469
:1005E400E1BF411106C613059060EF00F00F01450D
:1005F400EF00901C13052060EF00100F85460D4698
:100604008145B717014013850780EF00C076B727EF
:10061400014013850740412A0145D12A05468945F1
:10062400B72701401385074011248145B7270140AE
:1006340013850740712C05468545B727014013856E
:100644000740152E8965B727014013850740FD250E
:10065400814601468145B727014013850740552E41
:1006640037060E008545B727014013850740AD23A3
:1006740005468545B727014013850740C92B896581
:10068400B727014013850740552DB727014013852F
:100694000740B52CB727014013850740592C8545E1
:1006A400B7270140138507401D2D0100B2404101C9
:1006B4008280797106D613053060EF00F0021305CD
:1006C4000060EF007002930600020D46E145B71783
:1006D4000140138507C0452513051070EF00D000B5
:1006E400B707004013850740EF0050145C003E85B7
:1006F400EF00D0242312010023130100231401006E
:100704008967938707F43EC6231801002309010073
:100714005C00BE85B707004013850740EF00102535
:100724005C083E85EF0070398547231AF100231BCE
:100734000100231C0100231D0100231E0100231FAF
:1007440001005C083E868545B707004013850740D5
:10075400EF00903901468545B707004013850740EF
:10076400EF10E00B130600068545B707004013851C
:100774000740EF00107D01468545B707004013850B
:100784000740EF10E010B707004013850740EF0063
:100794007031B707004013850740EF00502F010068
:1007A400B25045618280011106CE2AC63247B7276E
:1007B400014093870740630AF7003247B737014087
:1007C40093870780630AF70039A813059030B92F7F
:1007D40013059030712F01A81305A030812F130544
:1007E400A030792701000100F240056182804111A7
:1007F4002AC6B7270140938747409443B72701404F
:10080400938747403707F1FF7D17758F98C3B72744
:100814000140938747409443B7270140938747405B
:100824003247558F98C301004101828041112AC685
:100834002EC4B287A303F10083477100A9C7A2475E
:1008440093F7071089CBB24791079C4332471107AE
:1008540093E707101CC3A24793F7074089CBB2471D
:1008640091079C433247110793E707401CC3A247F3
:10087400898BA1CFB247A1079C433247210793E755
:1008840027001CC399A0A24793F7071089CBB2474E
:1008940091079C433247110793F7F7EF1CC3A24714
:1008A40093F7074089CBB24791079C43324711071E
:1008B40093F7F7BF1CC3A247898B81CBB247A1072B
:1008C4009C4332472107F59B1CC3010041018280F0
:1008D40041112AC62EC4A24789CFB247A107984323
:1008E400B247A107BE86856793870780D98F9CC2CC
:1008F40021A8B247A1079843B247A107BE86FD7756
:100904009387F77FF98F9CC20100410182804111D6
:100914002AC6B247A1079C43858B89EBB247A1073E
:100924009C433247210793E717001CC30100410190
:10093400828041112AC6B247A1079C43324721074E
:1009440093E787001CC30100B247A1079C43A18B16
:10095400E5FFB247A1079C433247210793E74700CD
:100964001CC30100B247A1079C43918BE5FF010022
:1009740001004101828041112AC6AE8732C2A3051B
:10098400F1008347B10005476386E70009476381A7
:10099400E704ADA8B2479387C7029843B247938749
:1009A400C702BE86B70710FFFD17F98F9CC2B24776
:1009B4009387C70298439247FD1793964701B70759
:1009C400F000F58FB2469386C602D98F9CC23DA82B
:1009D400B247938787039843B24793878703BE86BA
:1009E400B707D0FFFD17F98F9CC2B24793878703DF
:1009F40098439247FD1793964701B7073000F58F48
:100A0400B24693868603D98F9CC20100010041013E
:100A1400828001112AC6AE87328736C2A305F1004F
:100A2400BA872305F1000347B100954763E7E7045C
:100A3400B247938747039C433ECE0347B100BA872E
:100A44008A07BA977D47B317F70093C7F7FF724732
:100A5400F98F3ECE8346A1000347B100BA878A07C7
:100A6400BA97B397F6007247D98F3ECEB2479387B1
:100A740047033E87F2471CC365A80347B100AD474F
:100A840063EBE704B247938707039C433ECE834757
:100A9400B1001387A7FFBA878A07BA977D47B317B0
:100AA400F70093C7F7FF7247F98F3ECE8346A10044
:100AB4008347B1001387A7FFBA878A07BA97B3970A
:100AC400F6007247D98F3ECEB247938707033E871D
:100AD400F2471CC3B1A80347B100BD4763EAE7046A
:100AE400B2479387C7029C433ECE8347B100138726
:100AF40047FFBA878A07BA977D47B317F70093C7AA
:100B0400F7FF7247F98F3ECE8346A1008347B100B9
:100B1400138747FFBA878A07BA97B397F6007247D5
:100B2400D98F3ECEB2479387C7023E87F2471CC394
:100B34000347A100A54763E4E704B247C1079C4308
:100B44003ECC0347A100BA878607BA971D47B3175F
:100B5400F70093C7F7FF6247F98F3ECC0347A10024
:100B6400BA878607BA971247B317F7006247D98F37
:100B74003ECCB247C1073E87E2471CC399A803474E
:100B8400A100C54763E7E704B247B1079C433ECCE5
:100B94008347A100138767FFBA878607BA971D4763
:100BA400B317F70093C7F7FF6247F98F3ECC83472B
:100BB400A100138767FFBA878607BA971247B3174E
:100BC400F7006247D98F3ECCB247B1073E87E24770
:100BD4001CC301000561828041112AC6AE8732C25E
:100BE400A305F1008347B10005476386E700094781
:100BF4006388E70291A8B247A1079843B247A107C7
:100C0400BE86B707F2FFFD17F98F9CC2B247A10752
:100C14009843B247A107BE869247D98F9CC22DA0A4
:100C2400B247A1079843B247A107BE86E577FD17EF
:100C3400F98F9CC2B247A1079843B247A107BE8669
:100C44009247D98F9CC20100010041018280411169
:100C54002AC6AE873287A305F100BA872305F100BF
:100C64008347A1008DCF8347B100858B99CBB247D1
:100C7400A1079843B247A107BE86B7071000D98FD2
:100C84009CC28347B100898BA1CBB247A10798438B
:100C9400B247A107BE86A167D98F9CC235A88347F6
:100CA400B100858B81CFB247A1079843B247A10712
:100CB400BE86B707F0FFFD17F98F9CC28347B100CA
:100CC400898B99CBB247A1079843B247A107BE8647
:100CD400E177FD17F98F9CC2010041018280411127
:100CE4002AC6AE87A305F1008347B100858B99CB53
:100CF400B247A1079843B247A107BE86B707400091
:100D0400D98F9CC28347B100898B99CBB247A10785
:100D14009843B247A107BE86B7072000D98F9CC26B
:100D240001004101828041112AC6B2479387C7045A
:100D34009C43C207C1833E854101828041112AC67A
:100D44002EC4B247938707089843B247938707088E
:100D5400BE86F577FD17F98F9CC2B24793870708C3
:100D64009843B24793870708BE86A247D98F9CC28F
:100D740001004101828001112AC62EC432C236C04C
:100D840002CC02CAA247BD8B3ECCA247C18B89C705
:100D940062479247D98F3ECC231F010041A8835755
:100DA400E1010247B357F700858BA5CFB2479C43B7
:100DB4003ECA8357E1018A073D47B317F70093C73B
:100DC400F7FF5247F98F3ECA8357E1018A0762470A
:100DD400B317F7005247D98F3ECA224793078002C0
:100DE400631EF7008357E10105473317F700B24745
:100DF400D107BE868247F98F9CC20DA02247930774
:100E04008004631DF7008357E10105473317F7009A
:100E1400B247C107BE868247F98F9CC2B247524788
:100E240098C38357E1018507231FF1000357E101AC
:100E34009D47E3F6E7F6A147231FF10069A883570E
:100E4400E1010247B357F700858BC9C3B247910745
:100E54009C433ECA8357E101E1178A073D47B31714
:100E6400F70093C7F7FF5247F98F3ECA8357E10152
:100E7400E1178A076247B317F7005247D98F3ECA72
:100E8400224793078002631EF7008357E101054759
:100E94003317F700B247D107BE868247F98F9CC249
:100EA4000DA0224793078004631DF7008357E101D7
:100EB40005473317F700B247C107BE868247F98F4B
:100EC4009CC2B24791073E87D2471CC38357E101B6
:100ED4008507231FF1000357E101BD47E3F1E7F65E
:100EE40001000100056182804111AA872317F100E6
:100EF4008357E1009983C207C1833E87B717024035
:100F0400BA9798438357E100FD8B8546B397F60063
:100F14008356E1009982C206C1823686B716024022
:100F2400B296D98F9CC20100410182804111AA87E7
:100F34002317F1008357E1009983C207C1833E87D9
:100F4400B7170240BA9798438357E100FD8B854653
:100F5400B397F6008356E1009982C206C1823686B1
:100F6400B7160240B296D98F9CC20100410182801B
:100F74004111AA872317F1008357E1009983C2071F
:100F8400C1833E87B7170240BA9798438357E1005D
:100F9400FD8B8546B397F60093C7F7FF8356E100B0
:100FA4009982C206C1823686B7160240B296F98F7C
:100FB4009CC201004101828001112AC6B717024078
:100FC40091079C433ECE7247B747FFEFFD17F98F59
:100FD4003ECE32479D476305F70232479D4763EE95
:100FE400E70232478D4763F7E700324795476309C5
:100FF400F70025A0B247BA077247D98F3ECE39A869
:10100400B247ED9B3EC6B2471397E700F2475D8FA8
:10101400B7070010D98F3ECE11A00100B7170240C8
:101024009107724798C3010005618280011106CEC1
:101034002AC63247B7370140938707C0630AF708C7
:101044003247B7370140938707C063E4E70E32475E
:10105400B7170040938707406306F70C3247B7176A
:1010640000409387074063E6E70C3247B717004018
:101074006303F70A3247B717004063ECE70A3247C5
:10108400B7170040938707C06300F7083247B717C4
:101094000040938707C063EEE7083247B717004064
:1010A40093870780630BF7043247B7170040938791
:1010B400078063E0E7083247B70700406301F7029F
:1010C4003247B7070040938707406301F70295A0B2
:1010D4001305B030A13D1305B030593DA1A8130547
:1010E4000040A935130500406135A9A0130510403F
:1010F400353D13051040AD3D35A8130520403D3561
:1011040013052040B5353DA01305304005351305C2
:101114003040B93D05A013054040093D130540404A
:10112400813D09A8130550401135130550408935F8
:1011340011A001000100F2400561828041112AC61C
:10114400B24723900700B24723910700B247239286
:101154000700B24741677D1798C7B2472396070037
:10116400B2472387070001004101828041112AC64A
:101174002EC4A24703D70700B2479387870298C3B8
:101184003247B7370140938707C0630CF7023247F1
:10119400B70700406307F7023247B7070040938759
:1011A40007406300F7023247B71700409387078070
:1011B4006309F7003247B7170040938707C0631DE0
:1011C400F702B2479843B2471377F7F898C3B24788
:1011D4009443A24783D7270013F70706B247558FD6
:1011E40098C3B2479443A24783D7470013F7070134
:1011F400B247558F98C305A0B2479843B2473D9B69
:1012040098C3B2479443A24783D7470013F7070113
:10121400B247558F98C3B2479387C7023E87A24708
:101224009C471CC33247B71700406309F702324793
:10123400B7170040938707406302F702B247984309
:10124400B2471377F7CF98C3B2479443A24783D7E3
:10125400C70013F70730B247558F98C33247B737E3
:101264000140938707C06319F700A24703C7E7004B
:10127400B2479387070398C3B247D1079C433247C9
:10128400510793E717001CC30100410182804111FB
:101294002AC6B2479843B2471367170098C30100A0
:1012A4004101828041112AC6B2479843B24713676D
:1012B400070898C301004101828041112AC6B24740
:1012C40023900700B24723910700B24723920700F7
:1012D400B24723930700B24723940700B2472395EC
:1012E400070001004101828041112AC6AE8732C243
:1012F4002315F1008357A1000D476389E7380D4793
:10130400634DF7420947638BE72409476347F74274
:1013140089C705476380E7120DA1B2479387070287
:101324009C43324713070702F99B1CC3B2479387B8
:1013340007029C43124703570700BA863247130734
:101344000702D58F1CC3B247938707029C433247D9
:1013540013070702F59B1CC3B247938707029C43FC
:10136400124703574700BA86324713070702D58F3F
:101374001CC33247B7370140938707C06314F70A89
:10138400B247938707029C43324713070702ED9B3A
:101394001CC3B247938707029C4312470357270095
:1013A400BA86324713070702D58F1CC3B247938707
:1013B40007029C43324713070702DD9B1CC3B24755
:1013C400938707029C43124703576700BA86324744
:1013D40013070702D58F1CC3B24791079C433247BA
:1013E400110793F7F7EF1CC3B24791079C431247C9
:1013F40003578700BA8632471107D58F1CC3B247FB
:1014040091079C433247110793F7F7DF1CC3B24798
:1014140091079C4312470357A700BA863247110726
:10142400D58F1CC3B247E1079C4332476107F19B48
:101434001CC329A6B247938707029C43324713076C
:101444000702BD9B1CC3B247938707029843924788
:1014540083D707009207B24693860602D98F9CC2AF
:10146400B247938707029C4332471307070293F757
:10147400F7FD1CC3B247938707029843924783D76B
:1014840047009207B24693860602D98F9CC2324720
:10149400B7370140938707C06319F70AB2479387A8
:1014A40007029C4332471307070293F7F7FB1CC359
:1014B400B247938707029843924783D7270092073E
:1014C400B24693860602D98F9CC2B247938707021D
:1014D4009C4332471307070293F7F7F71CC3B2473D
:1014E400938707029843924783D767009207B246CF
:1014F40093860602D98F9CC2B24791079C43324718
:10150400110793F7F7BF1CC3B2479107984392475B
:1015140083D787008A07B2469106D98F9CC2B24707
:1015240091079843B2479107BE86FD779387F77F6B
:10153400F98F9CC2B24791079843924783D7A7007B
:101544008A07B2469106D98F9CC2B247E1079C43F1
:101554003247610793F7F7CF1CC3CDA2B2479387F5
:1015640007029C4332471307070293F7F7EF1CC3A4
:10157400B247938707029843924783D70700A2078D
:10158400B24693860602D98F9CC2B247938707025C
:101594009C4332471307070293F7F7DF1CC3B24794
:1015A400938707029843924783D74700A207B2461E
:1015B40093860602D98F9CC23247B737014093877E
:1015C40007C0631DF70AB247938707029C4332475B
:1015D4001307070293F7F7BF1CC3B24793870702A9
:1015E4009843924783D72700A207B2469386060200
:1015F400D98F9CC2B247938707029843B247938717
:101604000702BE86FD779387F77FF98F9CC2B247A6
:10161400938707029843924783D76700A207B2468D
:1016240093860602D98F9CC2B24791079843B2476A
:101634009107BE86FD77FD17F98F9CC2B2479107CB
:101644009843924783D787009207B2469106D98F71
:101654009CC2B24791079843B2479107BE86F97777
:10166400FD17F98F9CC2B24791079843924783D7DD
:10167400A7009207B2469106D98F9CC2B247F107E0
:101684009C4332477107F19B1CC34DA8B247938713
:1016940007029843B24793870702BE86FD77FD177A
:1016A400F98F9CC2B247938707029843924783D726
:1016B4000700B207B24693860602D98F9CC2B2478E
:1016C400938707029843B24793870702BE86F97748
:1016D400FD17F98F9CC2B24793870702984392473C
:1016E40083D74700B207B24693860602D98F9CC2BD
:1016F4003247B7370140938707C06317F702B247F1
:1017040091079843B2479107BE86F177FD17F98F89
:101714009CC2B24791079843924783D787009A07A0
:10172400B2469106D98F9CC2B247F1079C43324717
:10173400710793F7F7CF1CC311A001000100410109
:10174400828041112AC6AE8732872315F100BA87F9
:101754002314F1008357A1000D476389E7080D475F
:10176400634BF70A09476381E70609476345F70AAC
:1017740089C705476385E70279A8B247E1079C4317
:101784003247610793F7F7F81CC3B247E107984360
:1017940083578100B246E106D98F9CC2B5A8B247EF
:1017A400E1079843B247E107BE86E577FD17F98F55
:1017B4009CC2B247E107984383578100A207B2460F
:1017C400E106D98F9CC289A8B247F1079C433247EE
:1017D400710793F7F7F81CC3B247F107984383578F
:1017E4008100B246F106D98F9CC23DA0B247F107F1
:1017F4009843B247F107BE86E577FD17F98F9CC27F
:10180400B247F107984383578100A207B246F10615
:10181400D98F9CC211A001000100410182804111B5
:101824002AC6AE8732C22315F1008357A1000D47A3
:101834006385E7040D476349F70409476388E702B2
:1018440009476343F70489C70547638AE7002DA85E
:10185400B247938747033E8792471CC33DA0B247D4
:10186400938787033E8792471CC305A0B24793879B
:10187400C7033E8792471CC309A8B247938707044E
:101884003E8792471CC311A00100010041018280E0
:1018940041112AC6AE8732872315F100BA87231473
:1018A400F1008357A1000D476388E7080D47634B98
:1018B400F70A09476381E70609476345F70A89C7B9
:1018C40005476384E70279A8B247E1079C4332479E
:1018D4006107DD9B1CC3B247E1079843835781002E
:1018E400B246E106D98F9CC2BDA8B247E10798432E
:1018F400B247E107BE86FD779387F77FF98F9CC2D5
:10190400B247E107984383578100A207B246E10634
:10191400D98F9CC289A8B247F1079C43324771070B
:10192400DD9B1CC3B247F107984383578100B2463D
:10193400F106D98F9CC205A8B247F1079843B24774
:10194400F107BE86FD779387F77FF98F9CC2B24774
:10195400F107984383578100A207B246F106D98F55
:101964009CC211A00100010041018280397106C0AE
:1019740016C21AC41EC62AC82ECA32CC36CE3AD0D3
:101984003ED242D446D672D876DA7ADC7EDE73252D
:101994002034F32510341703000013034303029388
:1019A40073101534824092422243B2434245D245D9
:1019B4006246F246025792572258B258425ED25EAD
:1019C400625FF25F21617300203001A08280828017
:1019D4000000011106CEEFE03F9B130570050928B6
:1019E400F920F36704303EC60100F24005618280AD
:1019F400797106D62AC6B70700D223800700B70735
:101A040000D2AD0723800700B71700D23ECCB247FF
:101A140092076247BA973ECAE2473ECE39A0F247E0
:101A240023A00700F247C1073ECE7247D247E368BE
:101A3400F7FE094515280100B25045618280411125
:101A4400AA87A307F100B70700D20347F100238058
:101A5400E700010041018280B70700D283C7070075
:101A640093F7F70F3E858280797106D6AA87A3077C
:101A7400F1008347F1008607A30FF100F13FAA8725
:101A8400230FF1008347E101859B13F7F70F834789
:101A9400F101F98B93F7F70FD98FA30EF100834768
:101AA400D1013E85693F0100B250456182804111F8
:101AB400F32750303EC6B2473EC4A24793F707FC13
:101AC4003EC4A24793E737003EC4A2477390573001
:101AD4000100410182800000130141FB06C016C2CF
:101AE4001AC41EC62AC82ECA32CC36CE3AD03ED22A
:101AF40042D446D672D876DA7ADC7EDE7350E87E3B
:101B040073D0F87E7350B97EF390D07E8240224326
:101B1400B2434245D2456246F24602579257225892
:101B2400B258425ED25E625FF25F73700430A642C6
:101B34007390427C9642739012348642739022349E
:101B440092421301C104730020309D4763F9B7002A
:101B5400B707002023A0A700232005004CC18280E2
:0400000508000322CA
:00000001FF
