:020000040800F2
:100000006F00E03100000000000000000000000070
:1000100000000000000000000000000000000000E0
:1000200000000000000000000000000000000000D0
:1000300000000000000000000000000000000000C0
:1000400000000000000000000000000000000000B0
:1000500000000000000000000000000000000000A0
:100060000000000000000000000000000000000090
:100070000000000000000000000000000000000080
:100080000000000000000000000000000000000070
:100090000000000000000000000000000000000060
:1000A0000000000000000000000000000000000050
:1000B0000000000000000000000000000000000040
:1000C0000000000000000000000000000000000030
:1000D0000000000000000000000000000000000020
:1000E0000000000000000000000000000000000010
:1000F0000000000000000000000000000000000000
:1001000000000000000000000000000000000000EF
:1001100000000000000000000000000000000000DF
:1001200000000000000000000000000000000000CF
:1001300000000000000000000000000000000000BF
:1001400000000000000000000000000000000000AF
:0E0150000000000000000000000000000000A1
:10016000970100189381016A97820018938282E9AF
:100170001681170200181302E2E8170500001305A4
:10018000E52A731055307310203417030000130351
:100190004330029317050000130585639705001887
:1001A000938545E6170600181306C6E563FAC500F1
:1001B0008322050023A0550011059105E3EAC5FE41
:1001C000170500001305C56097050018938585E3A2
:1001D00017060018130606E363FAC500832205001C
:1001E00023A0550011059105E3EAC5FE170500009F
:1001F0001305055E970500189385C5E017060018DE
:10020000130646E063FAC5008322050023A05500CB
:1002100011059105E3EAC5FE170500001305455BCE
:1002200097050018938505DE17060018130686DD6E
:1002300063FAC5008322050023A05500110591052E
:10024000E3EAC5FE170500001305455897050000B1
:100250009385C5576300B5021706000013060657BD
:1002600063FAC5008322050023A0550011059105FE
:10027000E3EAC5FE170500181305C5D89705001851
:10028000938545D86377B500232005001105E36DFC
:10029000B5FE170500181305E5D6970500189385D8
:1002A00065D66377B500232005001105E36DB5FE23
:1002B00017050018130505D597050018938585D4F3
:1002C0006377B500232005001105E36DB5FE170522
:1002D0000018130525D3970500189385A512898D5D
:1002E000232005004CC1170400001304244E97047A
:1002F00000009384A44D63079400032304001104B9
:100300000293D5BF01458145170300001303830CF9
:1003100002931703000013038317029301A017052C
:100320000000130525E48545F605637BB50089814A
:100330006378B500170500001305C5002E950285EA
:100340009302002073A0027D97020000938282CB6B
:1003500073907230970200009382C2197390C27E2C
:1003600073E0C07E970200009382420C739052307B
:1003700017030000130303DF0293B71702409843EB
:10038000B706FFE0B1061367170098C3D843758F0F
:10039000D8C39843B706F7FEFD16758F98C39843E8
:1003A000B706FCFFFD16758F98C3D843B70601DF6B
:1003B000FD16758FD8C323A607029843B706F7EA40
:0E03C000FD16758F98C33707FF0098C782801F
:1003D000B707000883A7877C011115473AC23EC6BC
:1003E00002C4224706CE22CC26CAA54763C4E70230
:1003F000A54412453244AD26A285A522292E2AC045
:1004000002451505B12E2AC6A24785073EC4A2475C
:10041000E3D1F4FE02443245FD2CB30785023EC20F
:10042000A24785073EC4EDBF397106C016C21AC483
:100430001EC62AC82ECA32CC36CE3AD03ED242D4BC
:1004400046D672D876DA7ADC7EDE73252034F32540
:100450001034170300001303430302937310153481
:10046000824092422243B2434245D2456246F2461E
:10047000025792572258B258425ED25E625FF25FD4
:1004800021617300203001A0828082800000411130
:1004900006C6E5351305700539209120F367043051
:1004A000B24041018280370700D2230007001205C5
:1004B000B71700D2A30507003E9563F7A70023A056
:1004C0000700C107E3EDA7FE370700D28347070007
:1004D00093F7170E93E747002300F7008280F32776
:1004E000503093F707FC93E73700739057308280C2
:1004F000130141FB06C016C21AC41EC62AC82ECA62
:1005000032CC36CE3AD03ED242D446D672D876DA03
:100510007ADC7EDE7350E87E73D0F87E7350B97E4D
:10052000F390D07E82402243B2434245D245624698
:10053000F246025792572258B258425ED25E625F2C
:10054000F25F73700430A6427390427C96427390BF
:10055000123486427390223492421301C104730014
:10056000203037060080B346B50063CD06086375BA
:10057000B500AA862E85B68513171500618393965C
:100580001500E1829302F00F6305570625C3B1CE33
:10059000B306D740E14263CAD204A205D18D1357F6
:1005A00075012205518DE547958F3396F5001D8223
:1005B000B3D5D500B307B50063F4A7008583090759
:1005C0007D179375F70F938515F091CD5E0713D5C1
:1005D0008700E207D18F63D607008607050591E300
:1005E00079993A9582801315770182807D817E0505
:1005F000828013161500B70200FFE30856FE370588
:10060000C07F8280B18DB306B5406375B500B18EF1
:10061000158DB69593961500E18213171500618329
:10062000A205D18D9302F00F630C570CF5C2B306EF
:10063000D74095C6854263905608935675012605A6
:10064000B332B5000D8D63920202DE06931575017B
:10065000258163D4050005057999369582809356E6
:100660007501260586050D8D75D9814593570501C0
:1006700099E34205C1059357850199E32205A10538
:100680009357C50199E3120591059357E50199E345
:100690000A058905634405000605850585050605E7
:1006A00063F7E5008D8EDE0625813695828013D5B1
:1006B00086007E058280E542E3E2D2FA85063307B2
:1006C000D0403397E500B3D5D5003337E000AE9581
:1006D000BA95935675012205518D3307B540634491
:1006E00007000A070583FD16DE061355870062071B
:1006F000635607000607050511E379993695828050
:100700009302F00FE38D56EE93159500A1D9C5BD68
:1007100031F7014582809357F54113161500935523
:100720008601938515F863CF0500B70600807D47E5
:100730000D8F635BE0002205558D3355E5003D8D3F
:100740001D8D82800145828013C7F6FFB70500FF2B
:1007500063F3C500798D758D634305003A8582800A
:100760001356F50122061306D60929CD9356F541F5
:10077000B345D500958D93D6050199E2C205411682
:1007800093D6850199E2A205611693D6C50199E237
:100790009205711693D6E50199E28A05791663C42C
:1007A000050086057D165E0613D58500DE0533A39C
:1007B0000500AE959A9563D60500AE95B335B000A9
:0607C0002E9532958280A7
:0407C8000000E0400D
:040000050800031ECE
:00000001FF
