:020000040800F2
:100000006F00E03100000000000000000000000070
:1000100000000000000000000000000000000000E0
:1000200000000000000000000000000000000000D0
:1000300000000000000000000000000000000000C0
:1000400000000000000000000000000000000000B0
:1000500000000000000000000000000000000000A0
:100060000000000000000000000000000000000090
:100070000000000000000000000000000000000080
:100080000000000000000000000000000000000070
:100090000000000000000000000000000000000060
:1000A0000000000000000000000000000000000050
:1000B000000000000000000000000000CC06000866
:1000C0000000000000000000000000000000000030
:1000D0000000000000000000000000000000000020
:1000E0000000000000000000000000000000000010
:1000F0000000000000000000000000000000000000
:1001000000000000000000000000000000000000EF
:1001100000000000000000000000000000000000DF
:1001200000000000000000000000000000000000CF
:1001300000000000000000000000000000000000BF
:1001400000000000000000000000000000000000AF
:0E0150000000000000000000000000000000A1
:10016000970100189381016A97820018938282E9AF
:100170001681170200181302E2E817150000130594
:10018000E51F73105530731020341713000013034C
:1001900043250293171500001305455397050018D2
:1001A000938545E6170600181306C6E563FAC500F1
:1001B0008322050023A0550011059105E3EAC5FE41
:1001C000171500001305855097050018938585E3E2
:1001D00017060018130606E363FAC500832205001C
:1001E00023A0550011059105E3EAC5FE171500008F
:1001F0001305C54D970500189385C5E0170600182F
:10020000130646E063FAC5008322050023A05500CB
:1002100011059105E3EAC5FE171500001305054B0E
:1002200097050018938505DE17060018130686DD6E
:1002300063FAC5008322050023A05500110591052E
:10024000E3EAC5FE171500001305454897150000A1
:100250009385C5476300B5021716000013060647CD
:1002600063FAC5008322050023A0550011059105FE
:10027000E3EAC5FE170500181305C5D89705001851
:10028000938545D86377B500232005001105E36DFC
:10029000B5FE170500181305E5D6970500189385D8
:1002A00065D66377B500232005001105E36DB5FE23
:1002B00017050018130505D5970500189385C5D4B3
:1002C0006377B500232005001105E36DB5FE170522
:1002D0000018130525D4970500189385A513898D5B
:1002E000232005004CC1171400001304243E97146A
:1002F00000009384A43D63079400032304001104C9
:100300000293D5BF01458145170300001303832ADB
:100310000293171300001303830C029301A0170527
:100320000000130525E48545F605637BB50089814A
:100330006378B500170500001305C5002E950285EA
:100340009302002073A0027D97020000938282CB6B
:1003500073907230971200009382820A7390C27E6B
:1003600073E0C07E97120000938242017390523076
:1003700017030000130303DF0293411106C6752023
:100380000100B24041018280411106C6B717024008
:100390009843B71702401367170098C3B717024076
:1003A00091079443B717024091073707FFE03107E1
:1003B000758F98C3B71702409443B71702403707A9
:1003C000F7FE7D17758F98C3B71702409443B71790
:1003D00002403707FCFF7D17758F98C3B71702409F
:1003E00091079443B71702409107370701DF7D1744
:1003F000758F98C3B71702409387C70223A00700E1
:10040000B71702409443B71702403707F7EA7D1742
:10041000758F98C3B7170240A1073707FF0098C32D
:10042000A93F0100B24041018280411102C602C4CD
:10043000B71702409443B71702404167558F98C3DE
:10044000B24785073EC6B71702409843B707020078
:10045000F98F3EC4A24791E73247C167FD17E31108
:10046000F7FEB71702409843B7070200F98F91E3F0
:1004700001A0B717024013874700B7170240910742
:10048000184398C3B717024013874700B7170240B5
:100490009107184398C3B717024091079843B717BD
:1004A000024091071367074098C3B71702409107AE
:1004B0009443B717024091073707C4DF7D17758F44
:1004C00098C3B717024091079443B71702409107AA
:1004D00037072920558F98C3B71702409387C70263
:1004E0009443B71702409387C7023D77758F98C32F
:1004F000B71702409387C7029443B7170240938708
:10050000C7024167130717F1558F98C3B717024009
:100510009443B717024037070004558F98C3010072
:10052000B71702409843B7070008F98FF5DBB717F4
:1005300002409443B717024037070010558F98C305
:100540000100B71702409843B7070020F98FF5DB89
:10055000B71702409443B717024037070001558F81
:1005600098C30100B71702409843B7070002F98FFC
:10057000F5DBB717024091079843B7170240910780
:10058000719B98C3B717024091079843B717024071
:1005900091071367270098C30100B717024091071E
:0E05A0009C43A18BFDDB010001004101828024
:1005B000411106C613052060852613053060A92E5B
:1005C00085460D4693058004B717014013850780C3
:1005D0008D2A85460D46C145B7170140138507C0D2
:1005E0008D22930600020D46C145B71701401385C1
:1005F00007C0812AEF00B06715208545B717014075
:1006000013850780E12C2A878547998F3E8685458B
:10061000B7170140138507C0712CC5B7797106D68D
:10062000014685451305F002EF0050651305007083
:10063000E524370500404D2E5C003E857529854731
:100640002312F1002313010023140100A9679387EB
:1006500007C43EC6231801005C00BE853705004074
:10066000E1215C083E85ED2B8547231AF100231C10
:100670000100231E01005C083E86814537050040CD
:1006800039259567138607E2814537050040EF005D
:1006900070330146814537050040EF00F0240146E4
:1006A000814537050040EF00103989453705004086
:1006B000EF003046894537050040EF00504A3705C6
:1006C000004061230100B25045618280411106C69D
:1006D000894537050040EF00B0452A878547631EEE
:1006E000F704B707002083A7070013871700B70791
:1006F000002023A0E700B707002003A70700930707
:10070000803EB367F7028DE793050002B7170140FB
:10071000138507C0DD22AA8793B7170093F7F70F59
:100720003E8693050002B7170140138507C0592282
:10073000894537050040EF0090420100B240410179
:10074000828001112AC62EC432C236C002CC02CA2F
:10075000A247BD8B3ECCA247C18B89C76247924757
:10076000D98F3ECC231F010041A88357E1010247E6
:10077000B357F700858BA5CFB2479C433ECA83573A
:10078000E1018A073D47B317F70093C7F7FF5247C8
:10079000F98F3ECA8357E1018A076247B317F70012
:1007A0005247D98F3ECA224793078002631EF70043
:1007B0008357E10105473317F700B247D107BE86DB
:1007C0008247F98F9CC20DA0224793078004631DC6
:1007D000F7008357E10105473317F700B247C10718
:1007E000BE868247F98F9CC2B247524798C383574F
:1007F000E1018507231FF1000357E1019D47E3F65F
:10080000E7F6A147231FF10069A88357E1010247DA
:10081000B357F700858BC9C3B24791079C433ECAC3
:100820008357E101E1178A073D47B317F70093C7E4
:10083000F7FF5247F98F3ECA8357E101E1178A0754
:100840006247B317F7005247D98F3ECA2247930732
:100850008002631EF7008357E10105473317F70055
:10086000B247D107BE868247F98F9CC20DA02247AE
:1008700093078004631DF7008357E1010547331791
:10088000F700B247C107BE868247F98F9CC2B247C4
:1008900091073E87D2471CC38357E1018507231F79
:1008A000F1000357E101BD47E3F1E7F60100010064
:1008B0000561828041112AC62EC432C2924799C76F
:1008C000B247C1073E87A2471CC331A0B247D10738
:1008D0003E87A2471CC301004101828041112AC604
:1008E0002EC4B247A1079843A247F98F99C3854701
:1008F00011A081473E854101828041112AC62EC444
:10090000B247B1079843A247F98F99C3854711A011
:1009100081473E85410182804111AA872317F1005A
:100920008357E1009983C207C1833E87B71702400E
:10093000BA9798438357E100FD8B8546B397F6003D
:100940008356E1009982C206C1823686B7160240FC
:10095000B296D98F9CC20100410182804111AA87C1
:100960002317F1008357E1009983C207C1833E87B3
:10097000B7170240BA9798438357E100FD8B85462D
:10098000B397F6008356E1009982C206C18236868B
:10099000B7160240B296D98F9CC2010041018280F5
:1009A0004111AA872317F1008357E1009983C207F9
:1009B000C1833E87B7170240BA9798438357E10037
:1009C000FD8B8546B397F60093C7F7FF8356E1008A
:1009D0009982C206C1823686B7160240B296F98F56
:1009E0009CC2010041018280011106CE2AC6324715
:1009F000B7370140938707C0630AF7083247B73714
:100A00000140938707C063E4E70E3247B717004001
:100A1000938707406306F70C3247B7170040938768
:100A2000074063E6E70C3247B71700406303F70A55
:100A30003247B717004063ECE70A3247B717004068
:100A4000938707C06300F7083247B71700409387C2
:100A500007C063EEE7083247B71700409387078067
:100A6000630BF7043247B71700409387078063E0B2
:100A7000E7083247B70700406301F7023247B7077C
:100A80000040938707406301F70295A01305B0303B
:100A9000F1351305B0302937A1A8130500407D3D7D
:100AA00013050040F53DA9A013051040453D130571
:100AB0001040FD3535A8130520404D351305204065
:100AC000C5353DA013053040513D13053040C93DAB
:100AD00005A013054040593513054040D13509A8FC
:100AE00013055040A53D130550405D3D11A0010088
:100AF0000100F2400561828041112AC6B24723906D
:100B00000700B24723910700B24723920700B2477C
:100B100041677D1798C7B24723960700B2472387DE
:100B2000070001004101828041112AC62EC4A2475C
:100B300003D70700B2479387870298C33247B73776
:100B40000140938707C0630CF7023247B7070040A4
:100B50006307F7023247B7070040938707406300F7
:100B6000F7023247B7170040938707806309F70001
:100B70003247B7170040938707C0631DF702B2479B
:100B80009843B2471377F7F898C3B2479443A24704
:100B900083D7270013F70706B247558F98C3B2478C
:100BA0009443A24783D7470013F70701B247558FF5
:100BB00098C305A0B2479843B2473D9B98C3B2473C
:100BC0009443A24783D7470013F70701B247558FD5
:100BD00098C3B2479387C7023E87A2479C471CC36E
:100BE0003247B71700406309F7023247B717004092
:100BF000938707406302F702B2479843B2471377DF
:100C0000F7CF98C3B2479443A24783D7C70013F7DF
:100C10000730B247558F98C33247B73701409387A3
:100C200007C06319F700A24703C7E700B2479387DD
:100C3000070398C3B247D1079C433247510793E754
:100C400017001CC301004101828041112AC6B2472E
:100C50009843B2471367170098C30100410182808F
:100C600041112AC6B24723900700B24723910700DB
:100C7000B24723920700B24723930700B247239459
:100C80000700B2472395070001004101828041110E
:100C90002AC6AE8732C22315F1008357A1000D4743
:100CA0006389E7380D47634DF7420947638BE724B3
:100CB00009476347F74289C705476380E7120DA1DB
:100CC000B247938707029C43324713070702F99BF9
:100CD0001CC3B247938707029C4312470357070080
:100CE000BA86324713070702D58F1CC3B2479387D2
:100CF00007029C43324713070702F59B1CC3B24708
:100D0000938707029C43124703574700BA8632472E
:100D100013070702D58F1CC33247B73701409387AB
:100D200007C06314F70AB247938707029C43324710
:100D300013070702ED9B1CC3B247938707029C432E
:100D4000124703572700BA86324713070702D58F89
:100D50001CC3B247938707029C433247130707021D
:100D6000DD9B1CC3B247938707029C43124703577E
:100D70006700BA86324713070702D58F1CC3B247F4
:100D800091079C433247110793F7F7EF1CC3B24713
:100D900091079C43124703578700BA8632471107D1
:100DA000D58F1CC3B24791079C433247110793F775
:100DB000F7DF1CC3B24791079C4312470357A700B4
:100DC000BA8632471107D58F1CC3B247E1079C434F
:100DD00032476107F19B1CC329A6B24793870702DC
:100DE0009C43324713070702BD9B1CC3B24793873E
:100DF00007029843924783D707009207B24693862B
:100E00000602D98F9CC2B247938707029C433247A0
:100E10001307070293F7F7FD1CC3B2479387070236
:100E20009843924783D747009207B24693860602BB
:100E3000D98F9CC23247B7370140938707C06319E7
:100E4000F70AB247938707029C433247130707020A
:100E500093F7F7FB1CC3B247938707029843924767
:100E600083D727009207B24693860602D98F9CC289
:100E7000B247938707029C4332471307070293F751
:100E8000F7F71CC3B247938707029843924783D76B
:100E900067009207B24693860602D98F9CC2B2477A
:100EA00091079C433247110793F7F7BF1CC3B24722
:100EB00091079843924783D787008A07B2469106E5
:100EC000D98F9CC2B24791079843B2479107BE861B
:100ED000FD779387F77FF98F9CC2B24791079843BC
:100EE000924783D7A7008A07B2469106D98F9CC242
:100EF000B247E1079C433247610793F7F7CF1CC322
:100F0000CDA2B247938707029C43324713070702DB
:100F100093F7F7EF1CC3B2479387070298439247B2
:100F200083D70700A207B24693860602D98F9CC2D8
:100F3000B247938707029C4332471307070293F790
:100F4000F7DF1CC3B247938707029843924783D7C2
:100F50004700A207B24693860602D98F9CC2324749
:100F6000B7370140938707C0631DF70AB2479387DD
:100F700007029C4332471307070293F7F7BF1CC3CE
:100F8000B247938707029843924783D72700A20767
:100F9000B24693860602D98F9CC2B2479387070256
:100FA0009843B24793870702BE86FD779387F77F02
:100FB000F98F9CC2B247938707029843924783D721
:100FC0006700A207B24693860602D98F9CC2B24739
:100FD00091079843B2479107BE86FD77FD17F98FB9
:100FE0009CC2B24791079843924783D787009207E4
:100FF000B2469106D98F9CC2B24791079843B24737
:101000009107BE86F977FD17F98F9CC2B247910709
:101010009843924783D7A7009207B2469106D98F8B
:101020009CC2B247F1079C4332477107F19B1CC336
:101030004DA8B247938707029843B24793870702A8
:10104000BE86FD77FD17F98F9CC2B24793870702D2
:101050009843924783D70700B207B24693860602A9
:10106000D98F9CC2B247938707029843B2479387B0
:101070000702BE86F977FD17F98F9CC2B2479387A6
:1010800007029843924783D74700B207B246938638
:101090000602D98F9CC23247B7370140938707C0F9
:1010A0006317F702B24791079843B2479107BE868C
:1010B000F177FD17F98F9CC2B24791079843924789
:1010C00083D787009A07B2469106D98F9CC2B24750
:1010D000F1079C433247710793F7F7CF1CC311A068
:1010E000010001004101828041112AC6AE8732878A
:1010F0002315F100BA872314F1008357A1000D478F
:101100006389E7080D47634BF70A09476381E706E0
:1011100009476345F70A89C705476385E70279A848
:10112000B247E1079C433247610793F7F7F81CC3C6
:10113000B247E107984383578100B246E106D98F51
:101140009CC2B5A8B247E1079843B247E107BE8603
:10115000E577FD17F98F9CC2B247E10798438357A3
:101160008100A207B246E106D98F9CC289A8B24786
:10117000F1079C433247710793F7F7F81CC3B24756
:10118000F107984383578100B246F106D98F9CC27C
:101190003DA0B247F1079843B247F107BE86E57715
:1011A000FD17F98F9CC2B247F1079843835781001E
:1011B000A207B246F106D98F9CC211A0010001001E
:1011C0004101828041112AC6AE8732C22315F10047
:1011D0008357A1000D476385E7040D476349F70472
:1011E00009476388E70209476343F70489C705474E
:1011F000638AE7002DA8B247938747033E8792474B
:101200001CC33DA0B247938787033E8792471CC308
:1012100005A0B2479387C7033E8792471CC309A81E
:10122000B247938707043E8792471CC311A0010071
:1012300001004101828041112AC6AE873287231501
:10124000F100BA872314F1008357A1000D4763888A
:10125000E7080D47634BF70A09476381E70609472B
:101260006345F70A89C705476384E70279A8B2474F
:10127000E1079C4332476107DD9B1CC3B247E1078E
:10128000984383578100B246E106D98F9CC2BDA81E
:10129000B247E1079843B247E107BE86FD779387DF
:1012A000F77FF98F9CC2B247E107984383578100CB
:1012B000A207B246E106D98F9CC289A8B247F107BE
:1012C0009C4332477107DD9B1CC3B247F10798432B
:1012D00083578100B246F106D98F9CC205A8B24758
:1012E000F1079843B247F107BE86FD779387F77FF2
:1012F000F98F9CC2B247F107984383578100A20738
:10130000B246F106D98F9CC211A001000100410133
:10131000828041112AC62EC4B247B1079843B24712
:10132000B107BE86A247D98F9CC2010041018280CD
:1013300001112AC62EC4B247B1079C432247F98F38
:101340003ECEB247C1079843A247F98F89C7F247FB
:1013500099C3854711A081473E850561828041116F
:101360002AC62EC4B247C1073E87A24793C7F7FFDC
:101370001CC3010041018280397106C016C21AC423
:101380001EC62AC82ECA32CC36CE3AD03ED242D45D
:1013900046D672D876DA7ADC7EDE73252034F325E1
:1013A0001034170300001303430302937310153422
:1013B000824092422243B2434245D2456246F246BF
:1013C000025792572258B258425ED25E625FF25F75
:1013D00021617300203001A0828082800000011111
:1013E00006CEEFE07FFA13057005D920552CF36780
:1013F00004303EC60100F24005618280130141FBCA
:1014000006C016C21AC41EC62AC82ECA32CC36CE90
:101410003AD03ED242D446D672D876DA7ADC7EDE34
:101420007350E87E73D0F87E7350B97EF390D07E0F
:1014300082402243B2434245D2456246F2460257B9
:1014400092572258B258425ED25E625FF25F73706A
:101450000430A6427390427C9642739012348642C6
:101460007390223492421301C10473002030411161
:10147000F36704303EC6010041018280011106CEAF
:101480002AC6AE873287A305F100BA872305F1008B
:1014900032459D208347B100BE853245F5288347FC
:1014A000A100BE8532458D2A0100F240056182808F
:1014B00001112AC6B70700D223800700B70700D260
:1014C000AD0723800700B71700D23ECCB247920782
:1014D0006247BA973ECAE2473ECE39A0F24723A000
:1014E0000700F247C1073ECE7247D247E368F7FED6
:1014F000010001000561828041112AC6B24713979D
:101500002700B71700D28507BA973E878547230083
:10151000F70001004101828041112AC6AE87A30570
:10152000F100B24713972700B71700D28D07BA977B
:101530003E878347B1002300F7000100410182800C
:1015400041112AC6B24713972700B71700D28D075B
:10155000BA9783C7070093F7F70F3E854101828052
:10156000B70700D283C7070093F7F70F3E85828045
:10157000011106CEF537AA87A307F1008347F100D2
:10158000858393F7F70FBD8BA307F1008347F10025
:101590003E85F24005618280797106D62AC6AE8703
:1015A000A305F100F137AA87A30FF1000347F1016A
:1015B000914763F5E7009147A30FF1000347B1009E
:1015C0008347F101A146B387F640B317F700230F15
:1015D000F1003245B537AA87A30EF1000347D101C8
:1015E0008347F101B317F700A30EF1000347D101C0
:1015F0008347F101B357F740A30EF1000347D10130
:101600008347E101D98F93F7F70FBE85324529371C
:101610000100B25045618280797106D62AC6AE8734
:10162000A305F100B137AA87A30FF1000347F10129
:101630008D4763F7E7009147A30FF1008147A9A801
:101640008347B1009207A305F1003245D53DAA8733
:10165000230FF1000347E1018347F101A146B3875E
:10166000F640B357F740230FF1000347E1018347EA
:10167000F101A146B387F640B317F700230FF1003D
:101680000347E1018347B100D98F93F7F70FBE8578
:10169000324559358347B1003E85B250456182805D
:1016A0004111F32750303EC6B2473EC4A24793F7DC
:1016B00007FC3EC4A24793E737003EC4A24773909D
:0816C000573001004101828056
:040000050800031ECE
:00000001FF
