:020000040800F2
:100000006F0020320000000000000000000000002F
:1000100000000000000000000000000000000000E0
:1000200000000000000000000000000000000000D0
:1000300000000000000000000000000000000000C0
:1000400000000000000000000000000000000000B0
:1000500000000000000000000000000000000000A0
:100060000000000000000000000000000000000090
:100070000000000000000000000000000000000080
:100080000000000000000000000000000000000070
:100090000000000000000000000000000000000060
:1000A0000000000000000000000000000000000050
:1000B0000000000000000000000000000000000040
:1000C0000000000000000000000000000000000030
:1000D0000000000000000000000000000000000020
:1000E0000000000000000000000000000000000010
:1000F0000000000000000000000000000000000000
:1001000000000000000000000000000000000000EF
:1001100000000000000000000000000000000000DF
:1001200000000000000000000000000000000000CF
:1001300000000000000000000000000000000000BF
:1001400000000000000000000000000000000000AF
:0E0150000000000000000000000000000000A1
:10016000970100189381016A97820018938282E9AF
:100170001681170200181302E2E817150000130594
:10018000E5E7731055307310203417130000130384
:1001900043ED0293171500001305C5FB97050018E2
:1001A000938545E6170600181306C6E563FAC500F1
:1001B0008322050023A0550011059105E3EAC5FE41
:1001C00017150000130505F997050018938585E3B9
:1001D00017060018130606E363FAC500832205001C
:1001E00023A0550011059105E3EAC5FE171500008F
:1001F000130545F6970500189385C5E01706001806
:10020000130646E063FAC5008322050023A05500CB
:1002100011059105E3EAC5FE17150000130585F3E6
:1002200097050018938505DE17060018130686DD6E
:1002300063FAC5008322050023A05500110591052E
:10024000E3EAC5FE171500001305C5F09715000079
:10025000938545F06300B50217160000130686EF7C
:1002600063FAC5008322050023A0550011059105FE
:10027000E3EAC5FE170500181305C5D89705001851
:10028000938545D86377B500232005001105E36DFC
:10029000B5FE170500181305E5D6970500189385D8
:1002A00065D66377B500232005001105E36DB5FE23
:1002B00017050018130505D5970500189385C5D4B3
:1002C0006377B500232005001105E36DB5FE170522
:1002D0000018130525D4970500189385A513898D5B
:1002E00017130000130363E50293171400001304AF
:1002F00064E6971400009384E4E563079400032305
:10030000040011040293D5BF014581451703000085
:100310001303032F029317130000130343D4029314
:1003200001A0170500001305E5E38545F605637B8D
:10033000B50089816378B500170500001305C50075
:100340002E9502859302002073A0027D9702000083
:10035000938242CB73907230971200009382C2D680
:100360007390C27E73E0C07E97120000938202C930
:1003700073905230170300001303C3DE0293B717C4
:1003800002409843B706FFE0B1061367170098C311
:10039000D8433706F7EA7D16758FD8C39843B7065A
:1003A000F7FEFD16758F98C39843B706FCFFFD1640
:1003B000758F98C3D843B70601DFFD16758FD8C374
:1003C00023A607029843C165718F98C33707FF00C2
:1003D00098C794431387F5FF37160240CD8E94C318
:1003E000B706020011A009C71C427D17F58FE5DF93
:1003F000B71702409843B7060200758F59CFD8430C
:100400003706C4DF7D16D8C3D843B7052920D8C323
:10041000D84313670740D8C3D44337170240F18E3F
:10042000D4C3D043B70600084D8ED0C3D057BD7596
:100430006D8ED0D7D057C165938515F14D8ED0D72D
:100440009043B70500044D8E90C31C43F58FF5DF34
:100450001C4337060010B7160240D18F1CC3370764
:1004600000209C42F98FF5DF9C42370600013717C8
:100470000240D18F9CC2B70600021C43F58FF5DF06
:100480005C43B7160240F19B5CC35C4393E72700D3
:0C0490005CC3DC42A18BF5DF828001A080
:10049C0041111305906006C622C4F92B01451D2598
:1004AC0013052060D12B3715014085460D4681453B
:1004BC001305058037240140A52113050440412A6A
:1004CC000145F9220546130504408945D52213053B
:1004DC0004408145352C05461305044085454124CF
:1004EC001305044089650521814613050440014626
:1004FC0081455D2C1305044037060E0085459D266D
:10050C000546130504408545412E896513050440B5
:10051C00DD2E13050440192C130504400524130586
:10052C0004402244B2408545410155AE7971130512
:10053C00306006D622D4892313050060352B37157D
:10054C000140930600020D46E145130505C0C92E76
:10055C0037151A00854513050580BD291305107044
:10056C0037040040112B1305044045230808992D2E
:10057C0089670C08938707F4130504403ECC02C826
:10058C00231A0100231E0100230F0100812D4800B6
:10059C00392785473EC2B707080089073EC4B7070D
:1005AC0000029387071050001305044085453EC692
:1005BC002127056613050440130686BB8545EF000D
:1005CC00F01A13050440130600068545EF0050147D
:1005DC000146854513050440EF00901B13050440AC
:1005EC00552D130504405525B25022544561828087
:1005FC00011122CC26CA4AC8B70400403729014051
:10060C003734030006CE130909405935938404404E
:10061C00313F1304C4A84A85DD2413165500098EF6
:10062C0085452685EF00901422C4A247EDD7B2472A
:10063C002246B2462247B3D7C702B387D702BA972E
:10064C003EC6A247FD173EC4A247F5F3E9B74111D8
:10065C00B727014006C693870740630BF500B737F1
:10066C00014093870780630DF500B2404101828001
:10067C00130590303129B2401305903041012DA162
:10068C001305A0303121B2401305A030410129A936
:10069C00B727014003A74740B706F1FFFD16758F3A
:1006AC0023A2E74003A74740498F23A2E74082805B
:1006BC0093F7051005C689C75C4193E707105CC129
:1006CC0093F7054089C75C4193E707405CC1898972
:1006DC0081CD1C4593E727001CC5828095E393F7D9
:1006EC00054081EB898991E182801C45F59B1CC5F5
:1006FC0082805C41898993F7F7BF5CC1F5D5F5B76A
:10070C005C4193F7F7EF5CC193F70540E1DFD5B798
:10071C001C4599C5056713070780D98F1CC58280B6
:10072C007D771307F77FF98F1CC582801C45858B5D
:10073C0089E71C4593E717001CC582801C451307ED
:10074C00850093E787001CC51C43A18BF5FF1C4556
:10075C0093E747001CC51C43918BF5FF82808547AE
:10076C006385F50289476391F5021C5D3707D0FF5D
:10077C007D17F98F1CDD1C5D7D1652063707300086
:10078C00798E5D8E10DD828082805C55370710FF7C
:10079C007D17F98F5CD55C557D1652063707F00036
:1007AC00798E5D8E50D58280954763E2B70493971E
:1007BC002500BE955859FD47B397B70093C7F7FF6F
:1007CC00F98FB315B600DD8D4CD9A54763E6C70488
:1007DC00931716003E9618499D47B397C70093C7C9
:1007EC00F7FFF98F3396C6005D8E10C98280AD4736
:1007FC0063E7B704E91593972500BE951859FD4793
:10080C00B397B70093C7F7FFF98FB315B600DD8D1B
:10081C000CD9A547E3FEC7FAC54763E1C7025916D1
:10082C00131716004C453A969D47B397C70093C7CC
:10083C00F7FFED8FB396C600DD8E54C58280BD47A1
:10084C00E3E5B7F8D11593972500BE955855FD47AC
:10085C00B397B70093C7F7FFF98FB315B600DD8DCB
:10086C004CD5A5B78547638FF5008947639BF50089
:10087C001C4565777D17F98F1CC51C455D8E10C511
:10088C00828082801C453707F2FF7D17F98F1CC5CB
:10089C001C455D8E10C5828093F7150011CE91C753
:1008AC001C4537071000D98F1CC5898989C91C457F
:1008BC002167D98F1CC5828091EB898991E1828057
:1008CC001C4561777D17F98F1CC582801C45370745
:1008DC00F0FF7D17F98F1CC58989F5D1D5B793F732
:1008EC00150091C71C4537074000D98F1CC5898955
:1008FC0091C51C4537072000D98F1CC582806845DF
:10090C004205418182808327050875777D17F98F11
:10091C002320F50883270508CD8F2320F508828036
:10092C0093F7050113F3F50099C33363C3008147B3
:10093C003D4E930E8002130F8004854FA1481396F1
:10094C00270033D7F6003318CE00058B1348F8FF79
:10095C003316C30019CB18413378E800336606010F
:10096C006382D5076386E50510C18507E39917FDFA
:10097C000148BD4E130F8002930F80048542414EF7
:10098C0033D6F60033970E01058A1347F7FFB318D9
:10099C00030111CA5041718F33E7E8006389E50305
:1009AC00638DF50158C185071108E39BC7FD828053
:1009BC003397FF00758F18C945BF3396F200758EBB
:1009CC0010C9CDB73397FF00758F58C971BF3396D7
:1009DC00F200758E50C9F9B7B70701406348050698
:1009EC0037073000DC4313160501B376E50041826E
:1009FC006388E606B7061000E98E9DCA935605017A
:100A0C0013F7F6008D46B396E60093C6F6FFFD8EFF
:100A1C00B707000FD58F99C5135755011207331718
:100A2C00E600D98F37070140634005025CC3828022
:100A3C001357550112073317E6001347F7FF7D8F45
:100A4C00B707000FD98FC1BF5CCF8280370730004A
:100A5C00DC4F13160501B376E5004182E39CE6F802
:100A6C003708014083264800370700F17D17F98EBF
:100A7C00F98F2322D80045B713576500B7170240EA
:100A8C003E97144385473395A700558D08C3828044
:100A9C0013576500B71702403E97144385473395AB
:100AAC00A700558D08C38280B71702401357650005
:100ABC003E9714438547B397A70093C7F7FFF58F6D
:100ACC001CC38280B7170240DC433747FFEF7D170A
:100ADC009546F98F6300D50263EBA60011476304BA
:100AEC00E5003A05C98F371702405CC382801D4769
:100AFC00E31BE5FE31773A05798DC98F3707001076
:100B0C00D98F371702405CC382804111B717004060
:100B1C0006C6138707C0630CE5066364A702370794
:100B2C00004093060740630CD50693870780631C2F
:100B3C00F50213052040A93FB240130520404101A6
:100B4C00A5B7138707406304E50637370140130741
:100B5C0007C06314E5021305B0301D3FB240130506
:100B6C00B030410191B7631CE504130500400D370B
:100B7C00B24013050040410105BF6312F504130593
:100B8C0040403937B24013054040410131BF130595
:100B9C003040FD3DB24013053040410131B71305E3
:100BAC001040FD35B240130510404101F5BD130551
:100BBC005040F93DB240130550404101F5B5B240EB
:100BCC0041018280C167FD17232005002312050017
:100BDC001CC52316050023070500828083D705005A
:100BEC0003D745001CD5B7370140938707C0418B0D
:100BFC00630DF502FD779387F73FE98FB706004049
:100C0C006385D7021C41BD9B1CC11C415D8F18C163
:100C1C0094459377F5BF3717004054D5639DE70291
:100C2C005C4993E717005CC98280144183D7250087
:100C3C0093F6F6F814C1144193F70706D58F1CC12F
:100C4C001C415D8F18C194459377F5BF3717004051
:100C5C0054D5E387E7FC184183D7C500B73601406C
:100C6C001377F7CF18C1104193F70730138706C0DD
:100C7C00D18F1CC1E316E5FA83C7E50023A8F6C2A1
:100C8C005C4993E717005CC982801C4193E717000D
:100C9C001CC182801C4193E707081CC18280231071
:100CAC00050023110500231205002313050023144E
:100CBC00050023150500828089476384F50C63E1E8
:100CCC00B704C1C514510357060083574600BD9A9B
:100CDC0014D1145112079207558F18D1145137376C
:100CEC000140930507C093F6F6FD14D11451D58F2E
:100CFC001CD1630CB51A1C4D93F7F7CF1CCD828019
:100D0C008D476393F5041C517D777D17F98F1CD1AA
:100D1C00835706001851F976B207D98F1CD1185198
:100D2C00FD1683574600758F18D11451B20737370B
:100D3C000140D58F1CD1930707C06308F5145C4D97
:100D4C0093F7F7CF5CCD828082801C5183560600CE
:100D5C0003574600F99B1CD103280502B737014005
:100D6C00938507C0B3E6060114D11451F59A14D13A
:100D7C001451558F18D1630DB50A1C4DF19B1CCD28
:100D8C0082801451035706008357460093F6F6EF02
:100D9C0014D114512207A207558F18D1145137378B
:100DAC000140930507C093F6F6DF14D11451D58F8B
:100DBC001CD16306B5005C4DF19B5CCD82800C515F
:100DCC0083572600FD7693F5F5BF0CD10C51A20785
:100DDC009388F67FCD8F1CD1032805029385F6FFEF
:100DEC0083576600B376180114D103280502A207B5
:100DFC0083568600B3E707011CD1832747C09206B0
:100E0C00FD8D2322B7C0832547C08357A600797672
:100E1C00CD8E2322D7C0832647C07D169207F18E34
:100E2C002322D7C0832647C0D58F2322F7C061B7B2
:100E3C00185183556600035826006D9B18D18328E2
:100E4C000502835686000357A6003366180110D19D
:100E5C0010515D9A10D110514D8E10D103A647C080
:100E6C001376F6EF23A2C7C003A647C0D18E23A2E8
:100E7C00D7C083A647C093F6F6DF23A2D7C083A6BC
:100E8C0047C0558F23A2E7C0CDBD832647C0F1775D
:100E9C00FD17FD8E835786002322D7C0832647C0BB
:100EAC009A07D58F2322F7C059BD0C5183562600C3
:100EBC008357660093F5F5FB0CD10C519206920703
:100ECC00CD8E14D10C518356860093F5F5F70CD1C9
:100EDC000C518A06CD8F1CD1832547C08357A600A1
:100EEC0013F6F5BF2322C7C0032647C08A07D18E4D
:100EFC002322D7C0832647C07D761306F67FF18E5A
:100F0C002322D7C0832647C0D58F2322F7C0E5B351
:100F1C0089476385F50463EDB7008DC91C4D657772
:100F2C007D17F98F1CCD1C4D22065D8E10CD828055
:100F3C008D47639CF5005C4D65777D17F98F5CCD13
:100F4C005C4D22065D8E50CD828082801C4D93F7C5
:100F5C00F7F81CCD1C4D5D8E10CD82805C4D93F747
:100F6C00F7F85CCD5C4D5D8E50CD82808947638FE8
:100F7C00F50063E5B70089C910DD82808D47639465
:100F8C00F50030C18280828050D9828050DD828011
:100F9C0089476386F50463EEB7009DC91C4D7D77C8
:100FAC001307F77FF98F1CCD1C4D22065D8E10CDDB
:100FBC0082808D47639DF5005C4D7D771307F77F2D
:100FCC00F98F5CCD5C4D22065D8E50CD8280828087
:100FDC001C4DDD9B1CCD1C4D5D8E10CD82805C4D5F
:100FEC00DD9B5CCD5C4D5D8E50CD8280397106C031
:100FFC0016C21AC41EC62AC82ECA32CC36CE3AD055
:10100C003ED242D446D672D876DA7ADC7EDE7325AE
:10101C002034F32510341703000013034303029309
:10102C0073101534824092422243B2434245D2455A
:10103C006246F246025792572258B258425ED25E2E
:10104C00625FF25F21617300203001A08280828098
:10105C000000411106C6EFF0CFB113057005392021
:10106C009120F3670430B24041018280370700D2EF
:10107C00230007001205B71700D2A30507003E9501
:10108C0063F7A70023A00700C107E3EDA7FE37070E
:10109C0000D28347070093F7170E93E7470023000E
:1010AC00F7008280F327503093F707FC93E7370063
:1010BC007390573082800000130141FB06C016C2AA
:1010CC001AC41EC62AC82ECA32CC36CE3AD03ED24C
:1010DC0042D446D672D876DA7ADC7EDE7350E87E5D
:1010EC0073D0F87E7350B97EF390D07E8240224349
:1010FC00B2434245D2456246F246025792572258B5
:10110C00B258425ED25E625FF25F73700430A642E8
:10111C007390427C964273901234864273902234C0
:10112C0092421301C104730020309D4763F9B7004C
:10113C00B707002023A0A700232005004CC1828004
:0400000508000322CA
:00000001FF
