:020000040800F2
:100000006F0020320000000000000000000000002F
:1000100000000000000000000000000000000000E0
:1000200000000000000000000000000000000000D0
:1000300000000000000000000000000000000000C0
:1000400000000000000000000000000000000000B0
:1000500000000000000000000000000000000000A0
:100060000000000000000000000000000000000090
:100070000000000000000000000000000000000080
:100080000000000000000000000000000000000070
:100090000000000000000000000000000000000060
:1000A0000000000000000000000000000000000050
:1000B0000000000000000000000000000000000040
:1000C0000000000000000000000000000000000030
:1000D0000000000000000000000000000000000020
:1000E0000000000000000000000000000000000010
:1000F0000000000000000000000000000000000000
:1001000000000000000000000000000000000000EF
:1001100000000000000000000000000000000000DF
:1001200000000000000000000000000000000000CF
:1001300000000000000000000000000000000000BF
:1001400000000000000000000000000000000000AF
:0E0150000000000000000000000000000000A1
:10016000970100189381016A97820018938282E9AF
:100170001681170200181302E2E8170500001305A4
:10018000A56F73105530731020341703000013034C
:100190000375029317150000130545829705001893
:1001A000938545E6170600181306C6E563FAC500F1
:1001B0008322050023A0550011059105E3EAC5FE41
:1001C000170500001305857F97050018938585E3C3
:1001D00017060018130606E363FAC500832205001C
:1001E00023A0550011059105E3EAC5FE170500009F
:1001F0001305C57C970500189385C5E01706001800
:10020000130646E063FAC5008322050023A05500CB
:1002100011059105E3EAC5FE170500001305057AEF
:1002200097050018938505DE17060018130686DD6E
:1002300063FAC5008322050023A05500110591052E
:10024000E3EAC5FE17050000130545779705000092
:100250009385C5766300B50217060000130606767F
:1002600063FAC5008322050023A0550011059105FE
:10027000E3EAC5FE170500181305C5D89705001851
:10028000938545D86377B500232005001105E36DFC
:10029000B5FE170500181305E5D6970500189385D8
:1002A00065D66377B500232005001105E36DB5FE23
:1002B00017050018130505D5970500189385C5D4B3
:1002C0006377B500232005001105E36DB5FE170522
:1002D0000018130525D4970500189385A513898D5B
:1002E000170300001303C36B0293170400001304E9
:1002F000E46C970400009384646C63079400032308
:10030000040011040293D5BF014581451703000085
:10031000130363200293170300001303035C02938B
:1003200001A0170500001305E5E38545F605637B8D
:10033000B50089816378B500170500001305C50075
:100340002E9502859302002073A0027D9702000083
:10035000938242CB73907230970200009382C2590D
:100360007390C27E73E0C07E970200009382C250F9
:1003700073905230170300001303C3DE0293B717C4
:1003800002409843B706FFE0B1061367170098C311
:10039000D8433706F7EA7D16758FD8C39843B7065A
:1003A000F7FEFD16758F98C39843B706FCFFFD1640
:1003B000758F98C3D843B70601DFFD16758FD8C374
:1003C00023A607029843C165718F98C33707FF00C2
:1003D00098C794431387F5FF37160240CD8E94C318
:1003E000B706020011A009C71C427D17F58FE5DF93
:1003F000B71702409843B7060200758F59CFD8430C
:100400003706C4DF7D16D8C3D843B7052920D8C323
:10041000D84313670740D8C3D44337170240F18E3F
:10042000D4C3D043B70600084D8ED0C3D057BD7596
:100430006D8ED0D7D057C165938515F14D8ED0D72D
:100440009043B70500044D8E90C31C43F58FF5DF34
:100450001C4337060010B7160240D18F1CC3370764
:1004600000209C42F98FF5DF9C42370600013717C8
:100470000240D18F9CC2B70600021C43F58FF5DF06
:100480005C43B7160240F19B5CC35C4393E72700D3
:0C0490005CC3DC42A18BF5DF828001A080
:10049C0041111305206006C6852C13054060AD2460
:1004AC003715014085460D469305800413050580DC
:1004BC00592AB24089660D469305800437150140D0
:1004CC00410151A241111305D07106C6352C1305FB
:1004DC0020601D2C371501400D46C1468145130582
:1004EC0005809522852C0145392E814501458126B3
:1004FC000145512C01458D2CB2401306000889454D
:10050C000145410165A45D71A2C4CAC03714014004
:10051C00156986C6A6C24EDE52DC56DA5AD85ED6AD
:10052C00814ABD37014B793F9304000813040480C2
:10053C001309E910614A9309600E05A06389FB0C4D
:10054C00896537150140652A137BF50F8547639D37
:10055C000A046302FB08DA8A5E8B854522854522F4
:10056C00937BF50F8547E30B0BFCE31BFBFCE3993B
:10057C000BFC4AC4A247E9D7B2472246B2462247EF
:10058C00B3D7C702B387D702BA973EC6A247FD17A7
:10059C003EC4A247F5F38965371501408D22137BC4
:1005AC00F50F8547E3870AFAE397FAFAE3150BFA96
:1005BC004ACCE247CDD3F2476246F2466247B3D704
:1005CC00C702B387D702BA973ECEE247FD173ECC9F
:1005DC00E247F5F349B74AC8C24785C3D2474246FA
:1005EC00D2464247B3D7C702B387D702BA973ECA9F
:1005FC00C247FD173EC8C247F5F363E59900E50411
:10060C0093F4F40F2686894501454D22A9B74AC0BB
:10061C00824785C39247024692460247B3D7C70228
:10062C00B387D702BA973EC28247FD173EC08247B6
:10063C00F5F363759A009D1493F4F40F268689459F
:10064C000145AD22F5BD93F7050113F3F50099C3F0
:10065C003363C30081473D4E930E8002130F800419
:10066C00854FA1481396270033D7F6003318CE00D8
:10067C00058B1348F8FF3316C30019CB1841337898
:10068C00E800336606016382D5076386E50510C171
:10069C008507E39917FD0148BD4E130F8002930F98
:1006AC0080048542414E33D6F60033970E01058AFD
:1006BC001347F7FFB318030111CA5041718F33E789
:1006CC00E8006389E503638DF50158C185071108BE
:1006DC00E39BC7FD82803397FF00758F18C945BF18
:1006EC003396F200758E10C9CDB73397FF00758F16
:1006FC0058C971BF3396F200758E50C9F9B70845C9
:10070C006D8D3335A000828013576500B7170240FA
:10071C003E97144385473395A700558D08C38280B7
:10072C0013576500B71702403E971443854733951E
:10073C00A700558D08C38280B71702401357650078
:10074C003E9714438547B397A70093C7F7FFF58FE0
:10075C001CC3828041111305D04106C6D137B2406B
:10076C001305D0414101C9BF3777004083270740AB
:10077C0011E593E717002320F7408280C166D58FDF
:10078C002320F740828009E9377700408327074010
:10079C00F59B2320F7408280B776004083A7064064
:1007AC0001777D17F98F23A0F6408280854701E9F8
:1007BC006381F5048947638FF50095C18280638F4F
:1007CC00F50289476382F502F5F9B777004023AA51
:1007DC00C7408280B777004023A8C7408280B77794
:1007EC00004023A4C7408280B777004023AEC740A7
:1007FC008280B777004023A6C7408280B77700403D
:10080C0023ACC740828009E9377700408327074033
:10081C00ED9B2320F7408280B776004083A70640EB
:10082C003707FCFF7D17F98F23A0F6408280B7773E
:10083C00004003A7074019E91377F7F323A0E7401B
:10084C0003A70740D98D23A0B7408280B70640FF8D
:10085C00FD16758F23A0E74003A70740C205D98D6D
:10086C0023A0B74082800000397106C016C21AC49A
:10087C001EC62AC82ECA32CC36CE3AD03ED242D46C
:10088C0046D672D876DA7ADC7EDE73252034F325F0
:10089C001034170300001303430302937310153431
:1008AC00824092422243B2434245D2456246F246CE
:1008BC00025792572258B258425ED25E625FF25F84
:1008CC0021617300203001A08280828000004111E0
:1008DC0006C645341305700549205520F3670430CE
:1008EC00B240410182800000130141FB06C016C2D8
:1008FC001AC41EC62AC82ECA32CC36CE3AD03ED224
:10090C0042D446D672D876DA7ADC7EDE7350E87E34
:10091C0073D0F87E7350B97EF390D07E8240224320
:10092C00B2434245D2456246F2460257925722588C
:10093C00B258425ED25E625FF25F73700430A642C0
:10094C007390427C96427390123486427390223498
:10095C0092421301C10473002030370700D22300E8
:10096C0007001205B71700D2A30507003E9563F7E1
:10097C00A70023A00700C107E3EDA7FE8280F327A1
:10098C00503093F707FC93E7370073905730828011
:10099C009D4763F9B700B707002023A0A7002320C9
:0609AC0005004CC1828031
:0400000508000322CA
:00000001FF
