:020000040800F2
:100000006F0020320000000000000000000000002F
:1000100000000000000000000000000000000000E0
:1000200000000000000000000000000000000000D0
:1000300000000000000000000000000000000000C0
:1000400000000000000000000000000000000000B0
:1000500000000000000000000000000000000000A0
:100060000000000000000000000000000000000090
:100070000000000000000000000000000000000080
:100080000000000000000000000000000000000070
:100090000000000000000000000000000000000060
:1000A0000000000000000000000000000000000050
:1000B0000000000000000000000000000000000040
:1000C0000000000000000000000000000000000030
:1000D0000000000000000000000000000000000020
:1000E0000000000000000000000000000000000010
:1000F0000000000000000000000000000000000000
:1001000000000000000000000000000000000000EF
:1001100000000000000000000000000000000000DF
:1001200000000000000000000000000000000000CF
:1001300000000000000000000000000000000000BF
:1001400000000000000000000000000000000000AF
:0E0150000000000000000000000000000000A1
:10016000970100189381016A97820018938282E9AF
:100170001681170200181302E2E817150000130594
:10018000A5E17310553073102034171300001303CA
:1001900003E70293171500001305050C97050018D7
:1001A000938545E6170600181306C6E563FAC500F1
:1001B0008322050023A0550011059105E3EAC5FE41
:1001C000171500001305450997050018938585E369
:1001D00017060018130606E363FAC500832205001C
:1001E00023A0550011059105E3EAC5FE171500008F
:1001F00013058506970500189385C5E017060018B6
:10020000130646E063FAC5008322050023A05500CB
:1002100011059105E3EAC5FE171500001305C50396
:1002200097050018938505DE17060018130686DD6E
:1002300063FAC5008322050023A05500110591052E
:10024000E3EAC5FE171500001305C5FD971500006C
:10025000938545FD6300B50217160000130646FF9F
:1002600063FAC5008322050023A0550011059105FE
:10027000E3EAC5FE170500181305C5D89705001851
:10028000938545D86377B500232005001105E36DFC
:10029000B5FE170500181305E5D6970500189385D8
:1002A00065D66377B500232005001105E36DB5FE23
:1002B00017050018130505D5970500189385C5D4B3
:1002C0006377B500232005001105E36DB5FE170522
:1002D0000018130525D4970500189385A513898D5B
:1002E00017130000130343F20293171400001304C2
:1002F00064F3971400009384E4F2630794000323EB
:10030000040011040293D5BF014581451703000085
:100310001303E339029317130000130303CE029370
:1003200001A0170500001305E5E38545F605637B8D
:10033000B50089816378B500170500001305C50075
:100340002E9502859302002073A0027D9702000083
:10035000938242CB73907230971200009382C2CB8B
:100360007390C27E73E0C07E971200009382C2C277
:1003700073905230170300001303C3DE0293B717C4
:1003800002409843B706FFE0B1061367170098C311
:10039000D8433706F7EA7D16758FD8C39843B7065A
:1003A000F7FEFD16758F98C39843B706FCFFFD1640
:1003B000758F98C3D843B70601DFFD16758FD8C374
:1003C00023A607029843C165718F98C33707FF00C2
:1003D00098C794431387F5FF37160240CD8E94C318
:1003E000B706020011A009C71C427D17F58FE5DF93
:1003F000B71702409843B7060200758F59CFD8430C
:100400003706C4DF7D16D8C3D843B7052920D8C323
:10041000D84313670740D8C3D44337170240F18E3F
:10042000D4C3D043B70600084D8ED0C3D057BD7596
:100430006D8ED0D7D057C165938515F14D8ED0D72D
:100440009043B70500044D8E90C31C43F58FF5DF34
:100450001C4337060010B7160240D18F1CC3370764
:1004600000209C42F98FF5DF9C42370600013717C8
:100470000240D18F9CC2B70600021C43F58FF5DF06
:100480005C43B7160240F19B5CC35C4393E72700D3
:0C0490005CC3DC42A18BF5DF828001A080
:10049C0083470500D5C7797122D44AD0374401402F
:1004AC00056926D24ECE06D6AA8413040480A94927
:1004BC001309B9819D452285EF00F02B65DD83C5BD
:1004CC000400638235052285EF00F0284AC4A24758
:1004DC00850485C3B2472246B2462247B3D7C7022A
:1004EC00B387D702BA973EC6A247FD173EC4A247B0
:1004FC00F5F383C70400DDFFB25022549254025925
:10050C00F249456182809305E00F2285EF00B0240B
:10051C004AC0824785C39247024692460247B3D7E8
:10052C00C702B387D702BA973EC28247FD173EC0B7
:10053C008247F5F39305000C2285EF00D02179B7A3
:10054C008280411106C622C479250545EF00E0736F
:10055C0013052060EF00A06E1305E060EF00206E25
:10056C0037150140930600200D46E1451305058023
:10057C007D233744014013050480EF00300A896560
:10058C001305048093850558EF0030121305048081
:10059C008145EF00D018130504808965EF005019D0
:1005AC00130504808145EF009016130504808145E6
:1005BC00EF00F01A130504808145EF00101B1305A2
:1005CC000480A145EF009018130504802244B2402A
:1005DC0041016F00101741111305906006C622C42B
:1005EC00B92D0145552D13052060912D371501406E
:1005FC0085460D46814513050580372401400523AA
:10060C0013050440A1240145592405461305044053
:10061C008945712C130504408145D52C05461305DD
:10062C0004408545252E130504408145E12981466A
:10063C001305044001468145BD26130504403706C9
:10064C000E00854539298545054613050440A12131
:10065C0013050440D92C13050440C524130504408C
:10066C002244B2408545410195A985679387B7819E
:10067C003305F50241112AC4A24785C3B24722466D
:10068C00B2462247B3D7C702B387D702BA973EC642
:10069C00A247FD173EC4A247F5F341018280B7374C
:1006AC0030305D71938707E33ECC93070003231E24
:1006BC00F10086C6A2C4A6C2CAC04EDE52DC56DA0F
:1006CC005AD85ED662D466D23937A53D130540069A
:1006DC0037440140593F9305E00F13050480EF00A8
:1006EC00900705455937854513050480EF00B00682
:1006FC000545A53F9305E00F13050480EF00B005F9
:10070C000545A5379305000813050480EF00B004D8
:10071C000545A13F3715000813050522953B3715F4
:10072C00000813050523AD33B717000803ACC72425
:10073C00B717000883AB0725372A01408564A969E0
:10074C00371B0008130A0A40130404809384B481F5
:10075C001309803E930AE0029389C9215285792EB0
:10076C00AA8C9305E00F2285EF00E07E26C8C247D5
:10077C0085C3D2474246D2464247B3D7C702B38756
:10078C00D702BA973ECAC247FD173EC8C247F5F317
:10079C009305600C2285EF00007C26C4A24785C31C
:1007AC00B2472246B2462247B3D7C702B387D70215
:1007BC00BA973EC6A247FD173EC4A247F5F366851D
:1007CC00EF00301DE285EF00B00EDE85EF00500E1D
:1007DC00EF00101993170501C183B3F62703930596
:1007EC00400629462808A30C5101B3D7270333F739
:1007FC00B60293870703230CF100B3D6B602B357A6
:10080C00C70293860603230DD1003377C702938763
:10081C000703A30DF10013070703230EE1008D3925
:10082C0013058B23B5314EC082478DDB92470246B0
:10083C0092460247B3D7C702B387D702BA973EC2D4
:10084C008247FD173EC08247F5F309BF4111B72718
:10085C00014006C693870740630BF500B73701408C
:10086C0093870780630DF500B24041018280130528
:10087C009030D526B240130590304101CDAE130512
:10088C00A030D12EB2401305A0304101CDA6B72720
:10089C00014003A74740B706F1FFFD16758F23A251
:1008AC00E74003A74740498F23A2E740828093F794
:1008BC00051005C689C75C4193E707105CC193F727
:1008CC00054089C75C4193E707405CC1898981CDAC
:1008DC001C4593E727001CC5828095E393F70540E0
:1008EC0081EB898991E182801C45F59B1CC5828036
:1008FC005C41898993F7F7BF5CC1F5D5F5B75C41CD
:10090C0093F7F7EF5CC193F70540E1DFD5B71C45D2
:10091C0099C5056713070780D98F1CC582807D7721
:10092C001307F77FF98F1CC582801C45858B89E7DF
:10093C001C4593E717001CC582801C4513078500D6
:10094C0093E787001CC51C43A18BF5FF1C4593E75F
:10095C0047001CC51C43918BF5FF8280854763853E
:10096C00F50289476391F5021C5D3707D0FF7D17AF
:10097C00F98F1CDD1C5D7D16520637073000798E11
:10098C005D8E10DD828082805C55370710FF7D17ED
:10099C00F98F5CD55C557D1652063707F000798EC1
:1009AC005D8E50D58280954763E2B70493972500FE
:1009BC00BE955859FD47B397B70093C7F7FFF98F0A
:1009CC00B315B600DD8D4CD9A54763E6C704931764
:1009DC0016003E9618499D47B397C70093C7F7FF7B
:1009EC00F98F3396C6005D8E10C98280AD4763E7E0
:1009FC00B704E91593972500BE951859FD47B39791
:100A0C00B70093C7F7FFF98FB315B600DD8D0CD97E
:100A1C00A547E3FEC7FAC54763E1C702591613178A
:100A2C0016004C453A969D47B397C70093C7F7FFFE
:100A3C00ED8FB396C600DD8E54C58280BD47E3E5CD
:100A4C00B7F8D11593972500BE955855FD47B39728
:100A5C00B70093C7F7FFF98FB315B600DD8D4CD5F2
:100A6C00A5B78547638FF5008947639BF5001C4547
:100A7C0065777D17F98F1CC51C455D8E10C582806E
:100A8C0082801C453707F2FF7D17F98F1CC51C456A
:100A9C005D8E10C5828093F7150011CE91C71C4551
:100AAC0037071000D98F1CC5898989C91C45216756
:100ABC00D98F1CC5828091EB898991E182801C457C
:100ACC0061777D17F98F1CC582801C453707F0FFB5
:100ADC007D17F98F1CC58989F5D1D5B793F715000A
:100AEC0091C71C4537074000D98F1CC5898991C512
:100AFC001C4537072000D98F1CC5828068454205EC
:100B0C00418182808327050875777D17F98F232013
:100B1C00F50883270508CD8F2320F508828093F7ED
:100B2C00050113F3F50099C33363C30081473D4EB0
:100B3C00930E8002130F8004854FA1481396270053
:100B4C0033D7F6003318CE00058B1348F8FF331655
:100B5C00C30019CB18413378E80033660601638271
:100B6C00D5076386E50510C18507E39917FD014894
:100B7C00BD4E130F8002930F80048542414E33D635
:100B8C00F60033970E01058A1347F7FFB3180301DC
:100B9C0011CA5041718F33E7E8006389E503638D17
:100BAC00F50158C185071108E39BC7FD8280339777
:100BBC00FF00758F18C945BF3396F200758E10C9AA
:100BCC00CDB73397FF00758F58C971BF3396F200BC
:100BDC00758E50C9F9B7371602401C4213070050E6
:100BEC00B716024093E717001CC211A009C79C421C
:100BFC007D17898BE5DFB717024098439843B706FA
:100C0C00F7FEFD16758F98C39843B706FCFFFD16CB
:100C1C00758F98C39843B70600ECFD16758F98C373
:100C2C00D843B70600C0B106758FD8C33707FF008D
:100C3C0098C7D857B706F8FF758FD8D78280135747
:100C4C006500B71702403E97144385473395A700BC
:100C5C00558D08C3828013576500B71702403E9725
:100C6C00144385473395A700558D08C38280B71769
:100C7C000240135765003E9714438547B397A7006E
:100C8C0093C7F7FFF58F1CC38280371702405C4374
:100C9C00F19BC98F5CC38280B7170240DC43374796
:100CAC00FFEF7D179546F98F6300D50263EBA60025
:100CBC0011476304E5003A05C98F371702405CC33E
:100CCC0082801D47E31BE5FE31773A05798DC98F8C
:100CDC0037070010D98F371702405CC38280B717D3
:100CEC0000089387C7238C43D0439447D847B70752
:100CFC0003040111938717202EC832CA36CC3EC28A
:100D0C003EC63ACE02C002C4B7160240D842B7154E
:100D1C007A00094609830D8BAA8793850520630DFC
:100D2C00C7043717024050435443584311820810EC
:100D3C003D8A2A96034506FFA1822D8310109D8AB9
:100D4C001D8BB2963297094683C606FE034787FE73
:100D5C0033D5A500638DC7086366F60091E32E8535
:100D6C0005618280F51793B717003355E500B3077B
:100D7C00F0407D8D05618280D8424166718F3DCBFC
:100D8C00D856798E1DC6D856CC5645469356470034
:100D9C00A181BD89BD8A1387250085066313C70011
:100DAC005147B7157A0093850520B3D5D502B38585
:100DBC00E502371702405857B71602403706002095
:100DCC003D8B0507B3D5E502D842D4424983F18E59
:100DDC003D8B9DEEBD46630FD7020907631DD702FD
:100DEC00139715002E9706078581BA951DBF3355AD
:100DFC00D500BDB7B7160240D842D4423706002002
:100E0C00B7153D004983F18E938505903D8BF9D242
:100E1C00136707010507B305B70221B74111B7578F
:100E2C00004006C6138707C06306E5046372A70279
:100E3C00630AF504B747014093870780631CF504E8
:100E4C001305E030093DB2401305E030410105B512
:100E5C0037470040130707406301E5049387078079
:100E6C00631AF50213052041FD33B24013052041EE
:100E7C004101F5BB13053041F93BB240130530413C
:100E8C004101F5B313054041F933B240130540411C
:100E9C004101F1BBB2404101828013051041653B19
:100EAC00B240130510414101D9B34111B75700406D
:100EBC0022C426C206C6138707C02A84AE846305E3
:100ECC00E5046379A7026301F504B74701409387F2
:100EDC0007806319F5020D45193593D714003E951B
:100EEC00B3559502B2409244C205C1810CC4224450
:100EFC0041018280B7C7FFBF938707C0AA9793F7BA
:100F0C00F7BF99C30145D1BF0945D13BF9B7584546
:100F1C001377F79F58C55C45CD8F5CC582805C45C7
:100F2C007D777D17F98F5CC55C45CD8F5CC5828064
:100F3C001C4975777D17F98F1CC91C49CD8F1CC9AD
:100F4C0082805C450967D98F5CC582805C45DD9BDE
:100F5C00CD8F5CC5828093F5F51F4CC182805C49B6
:100F6C0093F7F7EFCD8F5CC982805C4993F7F7DF7D
:100F7C00CD8F5CC9828093D76500AA97884333557F
:100F8C00B500058982800000397106C016C21AC4EA
:100F9C001EC62AC82ECA32CC36CE3AD03ED242D445
:100FAC0046D672D876DA7ADC7EDE73252034F325C9
:100FBC00103417030000130343030293731015340A
:100FCC00824092422243B2434245D2456246F246A7
:100FDC00025792572258B258425ED25E625FF25F5D
:100FEC0021617300203001A08280828000004111B9
:100FFC0006C6EFF00FB81305700541204D20F367BE
:10100C000430B24041018280130141FB06C016C27C
:10101C001AC41EC62AC82ECA32CC36CE3AD03ED2FC
:10102C0042D446D672D876DA7ADC7EDE7350E87E0D
:10103C0073D0F87E7350B97EF390D07E82402243F9
:10104C00B2434245D2456246F24602579257225865
:10105C00B258425ED25E625FF25F73700430A64299
:10106C007390427C96427390123486427390223471
:10107C0092421301C10473002030370700D22300C1
:10108C0007001205B71700D2A30507003E9563F7BA
:10109C00A70023A00700C107E3EDA7FE8280F3277A
:1010AC00503093F707FC93E73700739057308280EA
:1010BC00370700809302F00FB347B500F98F131672
:1010CC001500618293961500E18229CEBDC6630F8F
:1010DC0056046389560636962205598DA205D98D7C
:1010EC00B306B5023335B502B336D000558D634423
:1010FC00050006057D16130616F863480604FD1256
:10110C00635F56009316850121815E06329563D686
:10111C0006000505860691E279995D8D828037057A
:10112C00807FE5BF638D56003E858280260501E9F0
:10113C00E39756FEA60581E5DDB7E31756FE3705A6
:10114C00C07F8280A605E5FDD9BF050671FE21850D
:10115C00930215000905E39902FC3705800075BF61
:10116C006357A00293151500E181938515F863C0B0
:10117C000502B305B040FD0563C905002205B7069D
:10118C000080558D3355B50082807D558280014598
:10119C0082801356F50122061306D60929CD9356E3
:1011AC00F541B345D500958D93D6050199E2C2055D
:1011BC00411693D6850199E2A205611693D6C50115
:1011CC0099E29205711693D6E50199E28A05791692
:1011DC0063C4050086057D165E0613D58500DE0505
:1011EC0033A30500AE959A9563D60500AE95B3353D
:1011FC00B0002E95329582809D4763F9B700B707F2
:0E120C00002023A0A700232005004CC18280F3
:10122000516E4420566F6C746D657465720A0000CF
:1012300056696E203D2000005600000000000000AE
:0C1240000000000001020304060708097A
:08124C000000803900404E450E
:0400000508000322CA
:00000001FF
